:100000000C94FE060C9445070C9445070C94450788
:100010000C9445070C9445070C9445070C94450730
:100020000C9445070C9445070C94302A0C94032B30
:100030000C94A51C0C9445070C9445070C9445079B
:100040000C9445070C9445070C9445070C94450700
:100050000C9445070C94191D0C9445070C94450706
:100060000C9445070C9445070C9445070C944507E0
:100070000C9445070C9445070C9445070C944507D0
:100080000C9445070C9445070C9445070C944507C0
:100090000C9445070C9445070C9445070C944507B0
:1000A0000C9445070C9445070C94450735001E0039
:1000B0001F00200021002200000023002400250052
:1000C000260027002A002B0014001A000900130044
:1000D0000A0000000D000F0018001C00330028006B
:1000E00029000400150016001700070000000B008F
:1000F000110008000C0012003400E1001D001B007C
:1001000006001900050002510E00100036003700ED
:100110003800E100E000000000000000E3002C00D7
:10012000E5002961E60000000000045100003500F0
:100130001E001F00200021002200000023002400D8
:100140002500260027002A002B0014001A000800B2
:100150001500170000001C0018000C00120013000E
:100160002800290004001600070009000A0000000A
:100170000B000D000E000F0033003400E1001D00E5
:100180001B00060019000500035111001000360085
:1001900037003800E500E000000000000000E30048
:1001A0002C00E5002961E600000000000451000079
:1001B000000000000000000000000000000000003F
:1001C00000000000000000000000000000003302FA
:1001D000260227022D00000051004F002A002600B1
:1001E000270000000000000000002F0030002E005B
:1001F0000000500022002300240025000000010020
:1002000000000000000000003100010052001E004C
:100210001F0020002100010001000000000000007C
:1002200001000100010001000100000000000000C9
:1002300000000000000000000000000000000000BE
:1002400000000000000000000000000000000000AE
:100250003302260227022D00000000002A000000C1
:100260000000000000000000000000002F0030002F
:100270002E0000005000510052004F00000000000E
:10028000000000000000000000003100010000003C
:10029000000000000000000000000000000000005E
:1002A0000100010001000100010001000000000048
:1002B0000000000000000052015200000000000099
:1002C000000000000000000000000000095C0000C9
:1002D0000000000000000000000000000000AE0070
:1002E000000000000000000000000000000000000E
:1002F000000000000000AC00AA00A900AB00000054
:1003000000000000000000000000000000000000ED
:1003100000000000000000000000000000000000DD
:1003200000000000000000000000000000000000CD
:1003300000000100000044454255473A20656E61C7
:10034000626C65642E0A000A002530313662003A7C
:10035000200025303258000A722F632030313233AA
:100360003435363738394142434445460A00556EE4
:1003700069636F646520696E707574206D6F646564
:100380002073657420746F3A2025750A00556E69D4
:10039000636F646520696E707574206D6F6465208D
:1003A000696E697420746F3A2025750A000A002569
:1003B00030325820006B6579626F6172645F7265DC
:1003C000706F72743A20000A0025303258006B6555
:1003D00079626F6172645F7365745F6C65643A2003
:1003E00000290A002575002F002575005D280025CD
:1003F000640020002564002000256400200025649E
:10040000007C0025303258006D6F7573656B65791F
:10041000205B62746E7C782079207620685D28727B
:1004200065702F61636C293A205B006D6B5F7768A4
:1004300065656C5F74696D655F746F5F6D61782071
:100440003D2025640A006D6B5F776865656C5F6DA4
:1004500061785F7370656564203D2025640A006DD6
:100460006B5F74696D655F746F5F6D6178203D20AF
:1004700025640A006D6B5F6D61785F7370656564FC
:10048000203D2025640A006D6B5F696E746572768D
:10049000616C203D2025640A006D6B5F64656C61B2
:1004A00079203D2025640A006D6B5F776865656C77
:1004B0005F74696D655F746F5F6D6178203D2025A5
:1004C000640A006D6B5F776865656C5F6D61785F6E
:1004D0007370656564203D2025640A006D6B5F7450
:1004E000696D655F746F5F6D6178203D2025640ADA
:1004F000006D6B5F6D61785F7370656564203D2092
:1005000025640A006D6B5F696E74657276616C209C
:100510003D2025640A006D6B5F64656C6179203D48
:100520002025640A000A00257500363A20776865A0
:10053000656C5F74696D655F746F5F6D61783A209B
:10054000000A00257500353A20776865656C5F6D97
:1005500061785F73706565643A20000A0025750054
:10056000343A2074696D655F746F5F6D61783A200D
:10057000000A00257500333A206D61785F7370655D
:1005800065643A20000A00257500323A20696E74CD
:10059000657276616C286D73293A20000A00257512
:1005A00000313A2064656C6179282A31306D7329F5
:1005B0003A20000A092D2056616C756573202D0ABA
:1005C000004D3E004D25643E20003F0073657420C1
:1005D00064656661756C740A00433E200077686547
:1005E00072652064656C74613A20637572736F7212
:1005F0003D25642C20776865656C3D25640A53654C
:100600006520687474703A2F2F656E2E77696B6958
:1006100070656469612E6F72672F77696B692F4D02
:100620006F7573655F6B6579730A000A092D204D3C
:100630006F7573656B6579202D0A4553432F713AA9
:1006400009717569740A313A0964656C6179282AFF
:1006500031306D73290A323A09696E7465727661B8
:100660006C286D73290A333A096D61785F73706580
:1006700065640A343A0974696D655F746F5F6D6112
:10068000780A353A09776865656C5F6D61785F73E4
:10069000706565640A363A09776865656C5F7469E8
:1006A0006D655F746F5F6D61780A0A703A097072E8
:1006B000696E742076616C7565730A643A097365B6
:1006C000742064656661756C74730A75703A092BE1
:1006D000310A646F776E3A092D310A706775703A86
:1006E000092B31300A7067646F776E3A092D31300B
:1006F0000A0A7370656564203D2064656C7461202E
:100700002A206D61785F7370656564202A202872E5
:100710006570656174202F2074696D655F746F5F0B
:100720006D6178290A003F004D3E2000433E2000C5
:100730004C25640A0074696D65725F72656164338B
:100740003228293A202530346C580A006B657962CA
:100750006F6172645F69646C653A2025580A006BAA
:100760006579626F6172645F70726F746F636F6CD2
:100770003A2025580A00686F73745F6B6579626F61
:100780006172645F6C65647328293A2025580A00F9
:100790000A092D20537461747573202D0A00474394
:1007A000433A20372E342E30204156522D4C4942A8
:1007B000433A20322E302E30204156525F41524370
:1007C000483A20617672350A004F5054494F4E53D3
:1007D0003A204C554641204D4F5553454B455920E5
:1007E00045585452414B455920434F4E534F4C4569
:1007F00020434F4D4D414E4420343039360A00429B
:1008000055494C443A2022306266623062222028E8
:1008100031303A35303A3536204D61722032382049
:1008200032303139290A005649443A203078464559
:1008300045442850726F66657429205049443A2017
:100840003078363036322841747265757336322905
:10085000205645523A203078303030310A00444535
:1008600053433A20712E6D2E6B2E206B6579626F8B
:10087000617264206669726D7761726520666F725D
:100880002041747265757336320A000A092D2056AC
:10089000657273696F6E202D0A000A092D20436F5F
:1008A0006E736F6C65202D0A4553432F713A0971A1
:1008B0007569740A6D3A096D6F7573656B65790AB0
:1008C000000A092D204D61676963202D0A443A0909
:1008D0004465627567204D65737361676520546F69
:1008E00067676C650A583A094D61747269782044EB
:1008F00065627567204D6F646520546F67676C652E
:10090000202D2053686F77206B6579707265737343
:10091000657320696E206D617472697820677269F1
:10092000640A4B3A094B6579626F617264204465D1
:1009300062756720546F67676C65202D2053686F60
:1009400077206B65797072657373207265706F7252
:10095000740A4D3A094465627567204D6F75736579
:1009600020546F67676C650A563A09566572736959
:100970006F6E0A533A095374617475730A433A09E6
:10098000416374697661746520436F6E736F6C6543
:10099000204D6F64650A46312D4631303A09537750
:1009A0006974636820746F204C6179657220302D02
:1009B000392028463130203D204C30290A302D394D
:1009C0003A0953776974636820746F204C617965C4
:1009D0007220302D390A47524156453A09537769FA
:1009E00074636820746F204C617965722030202810
:1009F000616C7465726E617465290A423A094A75C0
:100A00006D7020746F20426F6F746C6F61646572DB
:100A10000A4553433A094A756D7020746F20426F3E
:100A20006F746C6F616465722028616C7465726E9E
:100A3000617465290A453A095072696E742045450A
:100A400050524F4D2053657474696E67730A425358
:100A5000504143453A09436C656172204545505207
:100A60004F4D0A000A002575002E6E6B726F3A20FA
:100A7000000A002575002E737761705F6261636BF9
:100A8000736C6173685F6261636B73706163653A15
:100A900020000A002575002E737761705F67726110
:100AA00076655F6573633A20000A002575002E6E37
:100AB0006F5F6775693A20000A002575002E73770D
:100AC00061705F72616C745F726775693A20000AC9
:100AD000002575002E737761705F6C616C745F6CBC
:100AE0006775693A20000A002575002E63617073EE
:100AF0006C6F636B5F746F5F636F6E74726F6C3A71
:100B000020000A002575002E737761705F636F6E99
:100B100074726F6C5F636170736C6F636B3A20000B
:100B20000A0025303258006B65796D61705F636F24
:100B30006E6669672E7261773A20000A002575009B
:100B40002E6D6F7573653A20000A002575002E6BB7
:100B50006579626F6172643A20000A002575002E83
:100B60006D61747269783A20000A002575002E655F
:100B70006E61626C653A20000A00253032580064CC
:100B8000656275675F636F6E6669672E7261773A3B
:100B900020000A0025750064656661756C745F6CE1
:100BA000617965723A20003F000A6D6F7573653A8E
:100BB000206F66660A000A6D6F7573653A206F6E66
:100BC0000A000A6B6579626F6172643A206F66662B
:100BD0000A000A6B6579626F6172643A206F6E0A6F
:100BE000000A6D61747269783A206F66660A000ABD
:100BF0006D61747269783A206F6E0A000A646562EA
:100C000075673A206F66660A000A64656275673A1E
:100C1000206F6E0A000A0A4A756D70696E6720744B
:100C20006F20626F6F746C6F616465722E2E2E2060
:100C300000433E2000436C656172696E6720454544
:100C400050524F4D0A006565636F6E6669673A0AD8
:100C5000005B735D004B6579626F61726420737431
:100C60006172742E0A005B575D005B535D005B523E
:100C70005D005B445D005B435D00040330000000E9
:100C800012034100740072006500750073003600A5
:100C9000320000000E03500072006F006600650015
:100CA000740000000403090409025B00030100A0B2
:100CB000FA090400000103010100092111010001EA
:100CC0002240000705810308000A0904010001030E
:100CD000000000092111010001228500070582039F
:100CE00020000A090402000203000000092111018A
:100CF00000012222000705830320000107050303EA
:100D00002000011201100100000008EDFE626001E8
:100D100000010203010631FF0974A10109751500E4
:100D200026FF009520750881020976150026FF0030
:100D3000952075089102C005010902A101850209EB
:100D400001A1000509190129051500250195057561
:100D500001810295017503810105010930093115F1
:100D600081257F95027508810609381581257F95B3
:100D70000175088106050C0A38021581257F950149
:100D800075088106C0C005010980A101850316010F
:100D9000002603001A81002A830075109501810046
:100DA000C0050C0901A1018504160100269C021A48
:100DB00001002A9C02751095018100C005010906F9
:100DC000A101050719E029E715002501950875011E
:100DD000810295017508810105081901290595050C
:100DE000750191029501750391010507190029FF0D
:100DF000150026FF00950675088100C011241FBE4E
:100E0000CFEFDAE0DEBFCDBF04B603FE27C080918E
:100E1000200290912102A0912202B09123028730FA
:100E2000904BA740B04BD1F41092200210922102B7
:100E3000109222021092230214BE84B7877F84BFCF
:100E40000FB6F894A8958091600088618093600047
:100E5000109260000FBEE0E0F8E3099511E0A0E019
:100E6000B1E0E8E6FAE502C005900D92AE33B107B5
:100E7000D9F722E0AEE3B1E001C01D92A032B20783
:100E8000E1F70E9453270C94322D0C940000FF933D
:100E9000EF93E0913E01F0913F01309709F0099501
:100EA000EF91FF910895FC018591803011F0EFDF03
:100EB000FBCF0895FF27E0E230E247FF0CC04195E9
:100EC00097FF09C0EDE26095709580959095611D42
:100ED000711D811D911D27FF02C0219530E350E255
:100EE000AA27660F771F881F991FAA1FA41710F043
:100EF000A41B63955A95A9F7AA3008F0A95FA05DD5
:100F0000AF93F395611571058105910541F7ED32B8
:100F100011F4EF93F395F21718F43F93F395FBCF89
:100F20008F91B5DFFA95E1F70895E991F9918591EF
:100F3000803021F0853219F0AADFF9CF089520E042
:100F4000E89455915532C1F3503311F4689455919A
:100F50005A3348F4505390F3220F022E220F220FDF
:100F6000200D250FF4CF0EF42195899199915336D8
:100F700019F3533729F1533559F1BC0188279927C3
:100F8000E8945C3621F4899199916894559154368E
:100F900039F446EF7EF077FF0DC08FEF9FEF0AC068
:100FA00055374AE039F0583540E121F0523642E0F9
:100FB00009F00895FF93EF937DDFEF91FF91B7CF95
:100FC000FF93EF93FC0181918030B9F360DFFBCF99
:100FD000FF93EF9368DFF1CFDF93CF93CDB7DEB709
:100FE0002596A3DFCF91DF91089581E0089581E0F8
:100FF00008950C94F7070E94961B811102C00E946D
:10100000101C0E940B0E0C945E0C0C94610C282F8B
:101010002F7041F0822F90E02A3010F44D96089501
:101020000697089587E290E0089508950C941508B6
:101030000C94160808950E94D7140E941A082FEFE6
:1010400084E39CE0215080409040E1F700C0000024
:1010500087E797E790930108809300080C943F1D61
:10106000FF920F931F93CF93DF938C01FC01C081FC
:10107000D18180917001811149C08281882309F456
:1010800040C0CE010E94221AF82E682FCE010E9485
:10109000C819BE018F2D0E94E209EC01B8010E941F
:1010A000F907882309F48DC0B801CE010E94B30E60
:1010B000882309F486C0C73DFCE5DF0709F428C191
:1010C00008F041C0C531ECE5DE0728F5C230FCE58B
:1010D000DF0708F099C0C1158CE5D80709F46CC08A
:1010E000C130DC4509F474C081E0809345018093F0
:1010F0004601C801DF91CF911F910F91FF900C9491
:10110000F507CE010E94F719F82EC3CFCE010E9439
:10111000221ABE01C0CFC631DC4531F70E94B71A92
:10112000F8019281992309F43FC18A7A91E009F488
:1011300090E090934001811135C189E20E94921A9A
:101140000E94091B3EC0CC3D8CE5D80709F44EC077
:1011500020F5C83DFCE5DF0709F401C1C93DDC45C8
:1011600019F6F80182818111FEC08091460181113A
:1011700017C180914301909144010E94EF1C883C6B
:10118000910508F00DC180E20E94021288E20E94DF
:10119000B01088E20E949D1114C0CD3DECE5DE0741
:1011A00069F1CE3DDC4509F09FCFF80182818823AB
:1011B00041F00E94101C05C0F801828181110E943B
:1011C0001B0880E0DF91CF911F910F91FF90089550
:1011D000F80182818823A9F38091EB0181608093DB
:1011E000EB0186E393E00E945307EBCFF801828185
:1011F000882339F380E00E94F827E3CFF801828149
:101200008823F9F282E0F7CFF8018281882309F47C
:1012100070CF0E94961B811102C00E94101C0E9478
:10122000A91B90E09093120280931102FE01E350FB
:10123000FC45809111028160E231F105C8F4ED5D59
:10124000F64F0C94D62C35094109450949094D0939
:101250005109550959095D096109650969096D094E
:101260007109750979097D098109809111028260EE
:1012700080931102809111020E94AD1B0E94D7142D
:10128000A0CF809111028460F3CF80911102886019
:10129000EFCF809111028061EBCF809111028062CB
:1012A000E7CF809111028064E3CF809111028068C2
:1012B000DFCF809111028460EACF809111028E7F8E
:1012C000D7CF809111028D7FD3CF809111028B7F78
:1012D000CFCF80911102877FCBCF809111028F7E7B
:1012E000C7CF809111028F7DC3CF809111028F7B78
:1012F000BFCF809111028F77BBCF809111028B7F7E
:10130000EACF90911102892F97FB87F98058B0CFCF
:10131000F8018281882361F0109245010E94D71C58
:10132000909342018093410182E00E94FB1149CFDA
:101330008091450181110FC080914101909142013E
:101340000E94EF1C883C910530F486E20E94B010A8
:1013500086E20E949D1182E00E94021232CFF801C3
:101360008281882351F0109246010E94D71C9093ED
:1013700044018093430180E2D8CF809146018111DE
:101380000FC080914301909144010E94EF1C883C62
:10139000910530F487E20E94B01087E20E949D110F
:1013A00080E2DACF85E3CACE80914001811104C08A
:1013B00089E20E94991AC4CE85E3FBCF90E080E0D9
:1013C00008950895972F70E02DE0929F600D711D94
:1013D0001124FB0191E4899FE00DF11D1124EE0F12
:1013E000FF1FE455FF4F859194910895FC01EE0F86
:1013F000FF1FE95BFC4F859194910895CF93DF9394
:101400000E94E2090E94BA0BEC018115904508F098
:1014100043C0C11580E4D80708F017C1C83ED10504
:1014200028F5C03ED10508F0A3C0C83AD10580F424
:10143000C53AD10508F092C0C130D10509F498C071
:1014400020F0C430D10508F093C0D0E0C0E090C0D7
:10145000CF3BD10508F490C0CE01805C9109C03C1F
:10146000D10598F30E94F609EC0182C0C11520E273
:10147000D20750F4C11581E0D80708F079C0C03F09
:10148000D10518F3D06574C0C11520E3D20708F068
:10149000D2C0CE019F70E6CFC11585E5D80760F5B3
:1014A000C11524E5D20708F0FEC0C11582E5D807B2
:1014B00050F4C11521E5D20708F4CAC0DC2FCC27AF
:1014C000C16FD06A55C09C2F969596959E0123704A
:1014D0003327C115D34508F0D7C0C1E0D0E002C022
:1014E000CC0FDD1F2A95E2F720E2929FC001112464
:1014F000C82BD92BDC683CC0C11529E5D207A8F45C
:10150000C11588E5D80708F0D3C0C11526E5D20774
:1015100008F09BCF8C2F0E943A0CC82FD0E0DC2F14
:10152000CC27CC27DF71D06223C0C1158AE5D8074C
:1015300008F4C3C0CE0190568115904208F085CFC3
:101540008D2F8F710E943A0CDD27D06290E0982F8A
:10155000882788279F71C82BD92B0AC0C53AD10587
:1015600009F4BDC0C63AD10509F4BCC0C3E8D0E453
:10157000CE01DF91CF910895C83AD10509F4B5C0E5
:10158000C93AD10509F4B4C0CA3AD10509F4B3C0C7
:10159000CB3AD10509F4B2C0CC3AD10509F4B1C0B7
:1015A000CB3BD10509F4B0C0CC3BD10509F4AFC0A9
:1015B000CD3AD10509F4AEC0C03BD10509F4ADC0A8
:1015C000CE3AD10509F4ACC0CF3AD10509F4ABC08D
:1015D000C13BD10509F4AAC0C23BD10509F4A9C099
:1015E000C33BD10509F4A8C0C43BD10509F4A7C089
:1015F000C53BD10509F4A6C0C63BD10509F4A5C079
:10160000C73BD10509F4A4C0C83BD10509F4A3C068
:10161000C93BD10509F4A2C0CD3BD10509F4A1C055
:10162000CE3BD10509F4A0C0CA3BD10509F09FC04B
:10163000CAE2D6E49DCFCE019927D3FF03C0EC01C7
:10164000D86C96CFEC01D06C93CFDF70D06A90CF7E
:10165000CE01F4E096958795FA95E1F783709C2F7B
:10166000937021E030E002C0220F331F9A95E2F719
:101670003C68382BC695C695C37080E2C89FE001D0
:101680001124C22BD32B74CFC1E0D0E002C0CC0F09
:10169000DD1F2A95E2F720E2929FC0011124C82B9A
:1016A000D92BDA6865CFDC2FCC27C46FD06A60CF26
:1016B000DC2FCC27C06FD06A5BCF8C2F8F700E943D
:1016C0003A0C34E0D695C7953A95E1F7CF70D0E063
:1016D000DC2FCC27D06A8F70806EC82B49CFC1E831
:1016E000D0E446CFC2E8D0E443CFC2EED4E440CF4A
:1016F000C9EED4E43DCFCAEED4E43ACFC5EBD4E48E
:1017000037CFC6EBD4E434CFC3EBD4E431CFC4EB52
:10171000D4E42ECFC7EBD4E42BCFCCECD4E428CF49
:10172000CDECD4E425CFC3E8D5E422CFCAE8D5E494
:101730001FCFC2E9D5E41CCFC4E9D5E419CFC1E27B
:10174000D6E416CFC3E2D6E413CFC4E2D6E410CF7A
:10175000C5E2D6E40DCFC6E2D6E40ACFC7E2D6E4AE
:1017600007CFCFE6D4E404CFC0E7D4E401CFC0E094
:10177000D4E4FECE8238910549F1B0F4813391056D
:1017800009F45CC048F48932910509F452C08A32E8
:10179000910509F458C008958533910509F444C0B2
:1017A0008933910599F00895833E910531F138F41C
:1017B000803E910591F0823E9105B1F00895863EFC
:1017C000910511F1873E910541F108952091110293
:1017D0002370C9F080EE90E008952091110220FF5F
:1017E00012C089E390E008952091110222FF0BC0FE
:1017F00024FF2EC090E080E008952091110222FD88
:101800002AC024FDF7CF08952091110223FFFBCFBA
:1018100024FDF0CF87EE90E008952091110223FF80
:10182000F0CF86EE90E008952091110225FD16C0BC
:1018300008952091110225FD14C0089520911102F0
:1018400026FD12C008952091110226FD10C00895B2
:1018500083EE90E0089582EE90E0089589E290E0B2
:10186000089585E390E008958AE290E0089581E389
:1018700090E0C9CF9091110292FF06C0282F2871E5
:10188000283069F4877F846093FF06C0282F287171
:10189000283161F4877E846194FD877E0895282F26
:1018A0002471243089F78B7F8860EECF282F247134
:1018B000243191F78B7E8861EFCF08950C945D0CF5
:1018C00008950C94600CCF93DF93A3E1B1E040E264
:1018D00051E0C1E0D0E08D91E82FE295EF70F0E0AB
:1018E00061A18F709E0101C0220F8A95EAF7922FA5
:1018F0009095962391A382A1822B82A34A175B071E
:1019000051F7A0E2B1E061E070E08D91E82FE2953F
:10191000EF70F0E041A18F709B0101C0220F8A950A
:10192000EAF7922F9095942391A382A1822B82A310
:1019300081E0A532B80749F7109252011092510187
:1019400010924801109247011092540110925301D5
:1019500010924A01109249011092560110925501BD
:1019600010924C0110924B011092580110925701A5
:1019700010924E0110924D0110925A01109259018D
:101980001092500110924F0185E00E94BA0DDF9134
:10199000CF910C94FB072F923F924F925F926F92E0
:1019A0007F928F929F92AF92BF92CF92DF92EF92EF
:1019B000FF920F931F93CF93DF9363E1E62E61E0D5
:1019C000F62E90E080E020E0CC24C394D12CE5E218
:1019D0006E2EE1E07E2EE70139917E01E32FE29544
:1019E000EF70F0E061A13F70A60101C0440F3A958D
:1019F000EAF7362F342B31A362A1342F30956323BD
:101A000062A3D0EADA95F1F75601082E02C0AA0CBB
:101A1000BB1C0A94E2F7450180949094A1E5B1E0E3
:101A200050E2252E51E0352E512C6D917C9111976D
:101A3000E10149901E01042D02950F7010E0E801AC
:101A400008A110E0D42DDF7002C015950795DA9536
:101A5000E2F700FD3BC08B010A291B2911961C935C
:101A60000E930D911C9111976017710711F0552479
:101A70005394129662147304C1F651A1352331A315
:101A800032A1432B42A3252901968D30910509F0FF
:101A9000A2CF45E067E471E081E591E00E94BB0DD3
:101AA0000E94050881E0DF91CF911F910F91FF9077
:101AB000EF90DF90CF90BF90AF909F908F907F90EE
:101AC0006F905F904F903F902F9008958B01082169
:101AD0001921C4CFE82FF0E0EE0FFF1FE95BFE4FA6
:101AE000808191810895CF92DF92EF92FF920F93C0
:101AF0001F93CF93DF9387E593E00E94530787E41A
:101B0000E82E81E0F82ED0E0C0E092E5C92E93E007
:101B1000D92E09E413E0DF93CF93DF92CF920E9496
:101B2000EC078FE493E00E945307F70181919191B4
:101B30007F010E94891B9F938F931F930F930E9495
:101B4000EC0787E493E00E94530721968DB79EB778
:101B500008960FB6F8949EBF0FBE8DBFC530D10555
:101B6000D1F6DF91CF911F910F91FF90EF90DF9011
:101B7000CF9008950895FF920F931F93CF93DF9313
:101B8000F82E092F162FD72FC42F222349F081E0DA
:101B900080935D010E94D71C90935C0180935B0150
:101BA00080915D018823A1F080915B0190915C019F
:101BB0000E94EF1C069760F0EF2DF02FA12FBD2F94
:101BC00090E080E0D0E08C179D0744F010925D011A
:101BD000DF91CF911F910F91FF9008952191319145
:101BE0002D933D930196EFCFCF93DF93EC01C1305E
:101BF00080E8D80760F0FB018281882341F00E94D1
:101C0000490ECE019F770E94960E0E947F0E81E0C2
:101C1000DF91CF9108958CE090E00E94F02C482F46
:101C200050E070E060E04093070250930802609338
:101C3000090270930A029091EB0190FF0CC01F9271
:101C40008F938DE893E09F938F930E94EC070F9002
:101C50000F900F900F900895609107028CE090E034
:101C60000C94FE2C809307020E942C0E8091EB01B5
:101C700080FF0EC0809107021F928F938EE693E043
:101C80009F938F930E94EC070F900F900F900F90EF
:101C900008950E94B71A80935E010E94CB1A80912A
:101CA0000702813081F058F08230E9F0843011F180
:101CB0008FE39CE90197F1F700C00000089582EEE0
:101CC0000E94B010F5CF80EE0E94B01081EE0E940D
:101CD000B01088E10E94F31181EE0E949D1180EE08
:101CE0000E949D11E5CF82EE0E94B01087E50E9410
:101CF000F311DECF86EE0E94F31188E1F8CF8091D8
:101D00000702813069F040F0823031F0843061F0B8
:101D100080915E010C94C81A82EE0E949D11F8CF4A
:101D20008CE20E94F311F4CF88E2FBCF0F931F9354
:101D3000CF93DF938C01CCE0D0E0C8010C2E02C021
:101D4000969587950A94E2F78F700E9407080E9483
:101D5000F3112497CC3F8FEFD80779F7DF91CF911C
:101D60001F910F9108950F931F93CF93DF93EC0171
:101D70008B01FB018281882371F0C33EFCE5DF0704
:101D800001F188F4C13EECE5DE07C9F081E0C23E16
:101D9000FCE5DF0789F0B801CE01DF91CF911F91FB
:101DA0000F910C94F40DC43E8CE5D80761F084E0EB
:101DB000C53EECE5DE0779F70E94320EECCF80E0FD
:101DC000FBCF82E0F9CF83E0F7CF9093640180935B
:101DD00063010895E0916301F0916401309721F06F
:101DE0000190F081E02D099480E00895EF92FF9238
:101DF0000F931F93CF93DF938C01E0916301F091D8
:101E000064013097C1F10280F381E02D0995809142
:101E1000EB0182FF30C080FF04C085EB93E00E949D
:101E20005307D0E0C0E08FEAE82E83E0F82E8091DF
:101E3000EB0180FF0EC0F801EC0FFD1F80811F92A7
:101E40008F93FF92EF920E94EC070F900F900F90EC
:101E50000F902196C830D10551F78091EB0180FF9A
:101E60000AC08DEA93E0DF91CF911F910F91FF900F
:101E7000EF900C945307DF91CF911F910F91FF903A
:101E8000EF900895E0916301F0916401309739F08B
:101E900022E0DC012C930480F581E02D0994089563
:101EA00020916101309162012817390771F09093F8
:101EB000620180936101E0916301F09164013097C8
:101EC00021F00680F781E02D0994089520915F01AB
:101ED000309160012817390771F090936001809369
:101EE0005F01E0916301F0916401309721F000847B
:101EF000F185E02D0994089585B7806885BF85B781
:101F0000806885BF0895089508950C94830F0895FF
:101F10000C94870F0E947C0F0E94840F0C94850FF5
:101F200081E008950E94CE1C0E94630C0E94501D07
:101F30000C94880FCF93C82F8091EB0182FF1EC0B5
:101F400080FF04C08EEC93E00E9453078091EB0168
:101F500080FF0CC01F92CF9389EC93E09F938F93E7
:101F60000E94EC070F900F900F900F908091EB0163
:101F700080FF04C087EC93E00E9453078C2FCF9121
:101F80000C9418085F926F927F928F929F92AF92FB
:101F9000BF92CF92DF92EF92FF920F931F93CF9356
:101FA000DF93CDB7DEB72A970FB6F894DEBF0FBE2A
:101FB000CDBF0E94CB0C0E94900F882309F47AC0F9
:101FC00096E6A92E91E0B92E10E000E088248394D3
:101FD000912C502E802F0E946A0D7C01F501C1903A
:101FE000D1905F01C816D90609F45EC08091EB015B
:101FF00081FD0E94730D90E080E0CE24DF24340147
:10200000082E02C0660C771C0A94E2F7960126217E
:102010003721232B09F443C08E835F82E620F7200B
:1020200081E0EF2809F480E088870E94D71C816056
:10203000782F9A8789874E815F8168858A850E947B
:102040008110000F111FF801EA59FE4F8081918124
:1020500068267926718260820E94651F0E94EA0EBE
:10206000909165018917B9F10E94EA0E809365018C
:102070002A960FB6F894DEBF0FBECDBFDF91CF9189
:102080001F910F91FF90EF90DF90CF90BF90AF9096
:102090009F908F907F906F905F900C949A0F019615
:1020A0008D30910509F0ABCF0F5F1F4F0530110543
:1020B00009F08FCF8FEF89838A831B820E94D71C00
:1020C0008160782F9D838C8349815A816B818D81BA
:1020D0000E948110C1CF2A960FB6F894DEBF0FBEC2
:1020E000CDBFDF91CF911F910F91FF90EF90DF90C7
:1020F000CF90BF90AF909F908F907F906F905F90A8
:102100000895CF93DF93CDB7DEB72B970FB6F89432
:10211000DEBF0FBECDBF4F83588769877A878B8715
:102120001E821D8285E0FE013796DE011196019028
:102130000D928A95E1F749815A816B817C818D816D
:102140009E812B960FB6F894DEBF0FBECDBFDF91F8
:10215000CF910C949917FC01808191810C94641AA1
:10216000CF93C82F882309F4E6C08238C1F40E94B7
:10217000EA0E81FDE0C089E30E94921A0E94091BC9
:102180002FEF81EE94E0215080409040E1F700C0B5
:10219000000089E30E94991ACF910C94091B83389F
:1021A000A1F40E94EA0E80FDC6C083E50E94921A47
:1021B0000E94091B2FEF81EE94E021508040904057
:1021C000E1F700C0000083E5E5CF8438A1F40E9468
:1021D000EA0E82FDB0C087E40E94921A0E94091B99
:1021E0002FEF81EE94E0215080409040E1F700C055
:1021F000000087E4CFCF8CEF8C0F813A48F48C2F0E
:102200000E94AA23811197C08C2F0E94921AC4CFDA
:1022100080E28C0F883048F4C77081E001C0880FDD
:10222000CA95EAF70E94BA1AB7CF8BE58C0F8330B4
:1022300068F481E890E0C53A31F083E890E0C63A6E
:1022400011F482E890E0CF910C94500F88E58C0F48
:10225000873108F068C082EE90E0C83A09F460C0A7
:1022600089EE90E0C93A09F45BC08AEE90E0CA3A80
:1022700009F456C085EB90E0CB3A09F451C086EBE7
:1022800090E0CC3A09F44CC083EB90E0CB3B09F4EE
:1022900047C084EB90E0CC3B09F442C087EB90E070
:1022A000CD3AF1F18CEC90E0C03BD1F18DEC90E0B7
:1022B000CE3AB1F183E891E0CF3A91F18AE891E02A
:1022C000C13B71F182E991E0C23B51F184E991E0B7
:1022D000C33B31F181E292E0C43B11F183E292E031
:1022E000C53BF1F084E292E0C63BD1F085E292E09A
:1022F000C73BB1F086E292E0C83B91F087E292E002
:10230000C93B71F08FE690E0CD3B51F080E790E063
:10231000CE3B31F090E080E0CA3B11F48AE292E0DB
:10232000CF910C94660FC03F30F08C2F0E94EC1DB3
:10233000CF910C94D81ECF910895882309F452C0F0
:10234000823871F40E94EA0E81FF4CC089E30E943A
:10235000921A0E94091B89E30E94991A0C94091B86
:10236000833859F40E94EA0E80FF3CC083E50E9446
:10237000921A0E94091B83E5EFCF843859F40E941A
:10238000EA0E82FF2FC087E40E94921A0E94091B66
:1023900087E4E2CF9CEF980F913AF0F290E2980F29
:1023A000983050F4877091E001C0990F8A95EAF750
:1023B000892F0E94C01AD2CF9BE5980F933020F44A
:1023C00090E080E00C94500F98E5980F973120F43E
:1023D00090E080E00C94660F803F20F00E94541E35
:1023E0000C94D81E0895CF93C82F0E94B0108C2F44
:1023F000CF910C949D11882321F00E94BA1A0C945D
:10240000091B0895882321F00E94C01A0C94091B0F
:1024100008958F929F92AF92BF92DF92EF92FF92B8
:102420000F931F93CF93DF937C01D62FC72FFC010F
:10243000058102950F70128111110E94DC1A0E9411
:10244000B01AD82E882371F0112331F180E28D0F5C
:10245000883010F182E00E94541B0E94B01A91E073
:10246000D82ED926BC2EB2949FE0B922EB2DF0E0F5
:10247000E45CFD4E0C94D62C4E124E129E129E120F
:10248000E5120D13EC12EC124F13EC12EA13EA13DF
:102490007414EC12EC127D14D12CE4CF0C2F0F70BD
:1024A000C07F11F00295007F1123A9F0002359F09D
:1024B00080E28D0F883010F0D11109C0802F0E946A
:1024C000BA1A0E94091B8D2F0E94B01014C0802FD1
:1024D0000E94CE1AF6CF8D2F0E949D11002359F035
:1024E00080E28D0F883010F0D11124C0802F0E941F
:1024F000C01A0E94091BDD2009F406C20E94AC1A12
:1025000080FD02C2F70112820E94A61A0E942C19B5
:10251000C7010E9490140E94A61ADF91CF911F91CB
:102520000F91FF90EF90DF90BF90AF909F908F90B2
:102530000C944D19802F0E94D41ADBCFFC2FFF7012
:10254000BF2EC07FC03219F0B29480EFB822DD23D5
:1025500069F0D13049F1112391F1002351F1F701D4
:10256000858180FFB0CF8F70858323C0112381F0D8
:10257000011106C00E94F01A8B290E94FB11BBCFEB
:102580000130C1F70E94F01A8B290E94F61AB3CFCE
:10259000011106C00E94FF1A8B2D0E940212ABCFC0
:1025A000013009F4A8CFF6CF112329F0063008F046
:1025B000A2CF8B2DE2CF053008F09DCFEDCF0023C9
:1025C00059F38D2F0E949D1196CF8C2F869586955D
:1025D000837079F08130B9F098E0B91609F49BC0A6
:1025E000B91608F488CF86EF8B0D823008F493C0BB
:1025F00082CF8D2F9C2F9370111102C090E080E04C
:102600000E94500F78CF8D2F9C2F9370111102C014
:1026100090E080E00E94660F6ECF112309F1D53F54
:1026200099F0D63FB9F0D43F49F480910B029091D4
:102630000C02816090930C0280930B028D2F0E94FC
:10264000EC1D0E94D81E57CF80910B0290910C0276
:102650008260F0CF80910B0290910C028460EACFEF
:10266000D53F89F0D63FA9F0D43F49F480910B02C1
:1026700090910C028E7F90930C0280930B028D2F11
:102680000E94541EDECF80910B0290910C028D7F30
:10269000F2CF80910B0290910C028B7FECCF8C2FAC
:1026A000837009F04BC0111136C02D2F229526954D
:1026B0002770220F220F6D2F6F70862E912CB12C58
:1026C000A12C022E04C0880C991CAA1CBB1C0A94C5
:1026D000D2F760E070E0CB01D4FF0FC06FE070E094
:1026E00080E090E004C0660F771F881F991F2A952D
:1026F000D2F76095709580959095C695C695C370F4
:10270000C23071F0A0F4682979298A299B29C13047
:1027100091F00E94DE180E94EA0E0E941808EBCE8B
:10272000682979298A299B290E94F018F4CF0E94F0
:10273000DE18C501B4010E94CC18EDCF8695112397
:1027400011F08C2F8170882331F32D2F229526953F
:102750002770220F220F6D2F6F70862E912CB12CB7
:10276000A12C022E04C0880C991CAA1CBB1C0A9424
:10277000D2F760E070E0CB01D4FF0FC06FE070E0F3
:1027800080E090E004C0660F771F881F991F2A958C
:10279000D2F76095709580959095C695C695C37053
:1027A000C23051F080F4682979298A299B29C130E7
:1027B00071F00E94A319AFCF682979298A299B2932
:1027C0000E94B519A8CF0E94A319C501B4010E94A7
:1027D0009119A1CFE0E2ED0FE53108F066C0F0E01D
:1027E000EC50FC4E0C94D62C09140914091409144D
:1027F00009140914091409140914091409140914F1
:1028000009140914091409141A1428142F1436145D
:102810004014DF708C2F8F71112331F00E942C191E
:102820008D2F0E94FB11D8CE0E944D198D2F0E9432
:102830000212D2CE112341F0053008F0CDCE8C2FFC
:102840008F710E947019C8CE063008F0C5CEF7CF40
:102850008C2F8F71112339F00E942C19BDCE8C2F33
:102860008F711123C9F30E944D19B6CE112329F09F
:102870008C2F8F710E941719AFCE0E941219ACCE07
:10288000112349F0CF718C2F0E942C1963E08C2FFB
:102890000E943F1BA1CE81E00E94541B023008F42D
:1028A0009BCE82E00E94541B97CE112349F0002357
:1028B00021F08D2F0E94B0108FCE8C2F8F71CCCF36
:1028C000002379F0D93349F4FFEF27EE83E0F1508C
:1028D00020408040E1F700C000008D2F0E949D1134
:1028E0007BCE8C2F8F71BFCF4C2F4F706D2FC701B8
:1028F0000E94DE090E944218FECD4C2F4F706D2FB2
:10290000C7010E94E109F7CDDF91CF911F910F918F
:10291000FF90EF90DF90BF90AF909F908F900895C1
:102920000F931F93CF93DF93EC01988189812B81C3
:102930003C81232B39F08F3F19F481E09F3F19F040
:1029400080E001C081E080FD17C0CE010E94300808
:10295000882391F0688179818A810E946E1A8C01A6
:102960000E94C7190E94C918B801CE01DF91CF910A
:102970001F910F910C940912DF91CF911F910F912C
:1029800008950E94DC1A0E94ED1A0E94091B0E9401
:10299000F01F0E94D81E90E080E00E94500F90E04F
:1029A00080E00C94660F0E94A01A0C94C1140E943F
:1029B000CB1A0C94D314E92FE295EF70E250EE306D
:1029C000E0F4F0E0EA51FB4E0C94D62CF414F4142D
:1029D000FD14FD14FF14FD14FD14FD14F414F4147F
:1029E0000415FD14FD140415803F19F020F4803EF9
:1029F00020F481E00895843FE1F380E00895803E73
:102A0000C0F3813FD1F7F5CF93FB882780F9089574
:102A10000E94641A0C94DB14CF93DF9300D000D093
:102A20001F92CDB7DEB70F900F900F900F900F90C1
:102A3000DF91CF910895CF93DF9300D000D000D0E5
:102A4000CDB7DEB726960FB6F894DEBF0FBECDBF6A
:102A5000DF91CF9108951F93CF93DF93C0917101C0
:102A600016E0809172018C1304C0DF91CF911F9109
:102A70000895D0E01C9FF0011D9FF00D1124ED582A
:102A8000FE4F4081518162817381848195810E94D2
:102A90001B152196C770E5CF4091A3015091A40169
:102AA0006091A5017091A6018091A7019091A80164
:102AB0000C941B151F93CF93DF938091A801807F07
:102AC000D1F48091A5018823B1F080917101D0915A
:102AD0007201B091A301C091A4014091A60150914F
:102AE000A701A1E0BF3F09F0A0E0BA016095709591
:102AF00016E0D81304C0DF91CF911F91089521E013
:102B00004115510521F02A2FCF3F09F020E090E038
:102B100020FD38C0189FF001199FF00D1124ED58C9
:102B2000FE4F21812C132EC020812B132BC022811C
:102B3000211128C0238134812417350700F1241B7B
:102B4000350B283C3105F0F42091A8012F7020614D
:102B50002093A80126E0289FF001299FF00D112461
:102B6000E858FE4F80818F708061808383EA91E016
:102B70000E949014DF91CF911F910C942B15260F7A
:102B8000371FDFCF01968770B4CFAF92BF92CF923D
:102B9000DF92EF92FF920F931F93CF93DF93CDB706
:102BA000DEB761970FB6F894DEBF0FBECDBF8C01C4
:102BB00085E0F801DE011D9601900D928A95E1F7FE
:102BC000D8014C9111965C9111971296EC9030912E
:102BD000A3016091A4018091A6019091A70121E039
:102BE000009731F06F3F19F421E03F3F09F020E0FA
:102BF000B22FB170BB2E20FD80C1F801C380D480FC
:102C0000A090A501AA2009F427C1C816D906D0F1C1
:102C1000D601A81BB90BCD01FF24F394883C910584
:102C200008F0F12C8091A801982F907FFF2009F4E3
:102C3000CEC0911187C0FE2C651329C0341327C064
:102C4000E11025C08F7080618093A8010E944C150F
:102C500083EA91E00E9490148091A801F801858395
:102C60008F2D61960FB6F894DEBF0FBECDBFDF91FA
:102C7000CF911F910F91FF90EF90DF90CF90BF9079
:102C8000AF900895809590958C0D9D1DC5CF81E0E6
:102C9000CD2831F05F3F19F481E04F3F09F080E02B
:102CA00080FD24C081E08E25F82FF170DF2E80FF9B
:102CB0003FC0809171012091720136E0821318C0EB
:102CC0004D875E878D859E850E94641A292F2295E7
:102CD0002F70223008F1243030F59F7009F1D801AF
:102CE00015969C91907FE1F4FB2CBACF80E0DCCF6D
:102CF00090E0389FF001399FF00D1124ED58FE4F00
:102D00006181561306C06081461303C062816E1153
:102D10000FC001968770D2CF9F7011F0882321F3E6
:102D2000805E883008F3C8010E949014BD2CDCCF6F
:102D3000EE2009F495CF8091A80181608093A801CD
:102D4000F12C8ECF651314C0341312C0E11010C0E3
:102D5000F8018583C8010E94901486E0F801A3EA77
:102D6000B1E001900D928A95E1F70E944C1578CF61
:102D70004D875E878D859E850E940815882319F1F1
:102D8000EE2009F18091A801803270F02091A3011A
:102D90003091A40138872F831986DB86CA868C87F9
:102DA000CE0107960E94901486E0F801A3EAB1E0F4
:102DB00001900D928A95E1F70E945A150E944C15D8
:102DC000FF24F3944DCFC8010E949014F9CF9111C4
:102DD00013C07C2DD98AC88A6E2D89890E940C1552
:102DE00083EA91E00E94901486E0E3EAF1E0DF01DB
:102DF0001D928A95E9F7B9CF651312C0341310C03C
:102E0000E1100EC0F8018583C8010E949014E3EA26
:102E1000F1E086E0DF011D928A95E9F7FA2C20CFD8
:102E20004D875E878D859E850E940815882359F2FF
:102E3000EE2049F28091A801803208F4B5CF2091AC
:102E4000A3013091A4013A8329831B82DD82CC82C5
:102E50008E83CE010196A6CFC816D90638F1F601A9
:102E6000E81BF90BCF01F12C883C910508F03DC01F
:102E7000FE2CEE2009F4A7CF651326C0341324C01E
:102E80008091A80180FD17C0982F907FA1F0D801F4
:102E900015968C931597903F09F45CCF982F907FEF
:102EA000905F8F70892B15968C9354CF8095909559
:102EB0008C0D9D1DD8CF86E0F801A3EAB1E001900A
:102EC0000D928A95E1F7CCCE4D875E878D859E85E4
:102ED0000E940815811168CF8091A80181608093BC
:102EE000A801C8010E949014BBCE7C2DD98AC88A43
:102EF0006E2D89890E940C1577CFEE2009F463CFDF
:102F00004D875E878D859E850E940815F82E882343
:102F100009F459CF86E0F801A3EAB1E001900D92DF
:102F20008A95E1F783EA91E00E94AB100E945A155E
:102F30001CCF1F93CF93DF93CDB7DEB72C970FB67F
:102F4000F894DEBF0FBECDBF4F83588769877A875D
:102F50008B879C87CE0107960E94C515882309F4AC
:102F600042C09F8188852A853B85232B39F08F3F7E
:102F700019F481E09F3F19F080E001C081E080FDFD
:102F800008C04F81588569857A858B859C850E940C
:102F90001B1516E08091710190917201891709F457
:102FA00067C0819FC00111248D589E4F0E94C51596
:102FB000882309F45DC0E09171011E9FF001112486
:102FC000ED58FE4F408151816281738184819581EA
:102FD0000E941B158091710190E0019687709927DE
:102FE00080937101D7CF86E0FE013796DE011196FE
:102FF00001900D928A95E1F79F8188852A853B850E
:10300000232B39F08F3F19F481E09F3F19F080E0C6
:1030100001C081E080FDBDCF2091720130E0C90187
:10302000019687709927409171014817190699F008
:1030300096E0929FD001939FB00D1124AD58BE4FE2
:10304000FE01319601900D929A95E1F780937201FD
:103050000E942B159ECF0E94D714109272011092DD
:10306000710186E0E3EAF1E0DF011D928A95E9F75C
:103070002C960FB6F894DEBF0FBECDBFDF91CF9177
:103080001F910895EF92FF920F931F93CF93DF93B9
:103090008C01892B81F0F12CEE24E394E801219638
:1030A000F8018491843770F4843008F05FC0813077
:1030B000B1F08230A1F1DF91CF911F910F91FF907C
:1030C000EF900895853709F44CC008F43DC09CE7A3
:1030D000980F903780F78F770E949D1149C00E5F3F
:1030E0001F4FFE01849190E2980F983060F4877032
:1030F000FE2D01C0FF0F8A95EAF78F2F0E94DF1A7D
:103100000E94091B02C00E94B0108F2D815030F226
:10311000EFE9FFE03197F1F700C00000F7CF0E5F55
:103120001F4FFE01849190E2980F983050F4877001
:10313000FE2D01C0FF0F8A95EAF78F2F0E94E51A36
:10314000DFCF0E949D11E1CF0E5F1F4FFE01C491A2
:10315000C150D8F28FE99FE00197F1F700C000005D
:10316000F7CF0E5F1F4FFE01F490CFCF0E94B0103B
:103170008E01CBCF08950C94BA180E94BB186093AF
:10318000DA017093DB018093DC019093DD010C94F4
:10319000C11408950C94BD180F931F930091DA0188
:1031A0001091DB012091DC013091DD01602B712B4E
:1031B000822B932B1F910F910C94BD180F931F938B
:1031C0000091DA011091DB012091DC013091DD01E9
:1031D00060237123822393231F910F910C94BD18B8
:1031E0000F931F930091DA011091DB012091DC0114
:1031F0003091DD0160277127822793271F910F915E
:103200000C94BD180C94BA180C9402190E9404195D
:103210006093D6017093D7018093D8019093D90120
:103220000C94C11460E070E0CB010C9406190F936C
:103230001F9341E050E060E070E08A019B0104C010
:10324000000F111F221F331F8A95D2F7C901B80141
:103250001F910F910C9406190F931F9341E050E0BA
:1032600060E070E004C0440F551F661F771F8A9509
:10327000D2F78091D6019091D701A091D801B09159
:10328000D9018A019B01082B192B2A2B3B2BC90141
:10329000B8011F910F910C9406190F931F9341E0F1
:1032A00050E060E070E004C0440F551F661F771FB8
:1032B0008A95D2F7CB01BA0160957095809590956B
:1032C0000091D6011091D7012091D8013091D901F8
:1032D00060237123822393231F910F910C9406196D
:1032E0000F931F9341E050E060E070E004C0440F92
:1032F000551F661F771F8A95D2F78091D60190914E
:10330000D701A091D801B091D9018A019B0108276A
:1033100019272A273B27C901B8011F910F910C9447
:1033200006190F931F930091D6011091D701209198
:10333000D8013091D901602B712B822B932B1F91D7
:103340000F910C9406190F931F930091D6011091C1
:10335000D7012091D8013091D901602371238223B4
:1033600093231F910F910C9406190F931F930091B3
:10337000D6011091D7012091D8013091D901602751
:103380007127822793271F910F910C940619089596
:103390002DE0929F800D1124982F977071E001C04D
:1033A000770F9A95EAF786958695869525E0829F10
:1033B000C001112450E040E0A62FB0E0FC01E40F72
:1033C000F51FE755FE4F60819D01042E02C0369522
:1033D00027950A94E2F7217021952627272326278F
:1033E00020834F5F5F4F4530510541F708952DE031
:1033F000929F800D1124982F9770869586958695BB
:1034000025E0829FA001112470E060E080E0FA01D5
:10341000E60FF71FE755FE4F208130E0092E02C06E
:10342000369527950A94E2F721703327062E01C0BE
:10343000220F0A94EAF7822B6F5F7F4F6530710588
:1034400031F70895BF92CF92DF92EF92FF920F93E0
:103450001F93CF93DF938C01C090D601D090D701FA
:10346000E090D801F090D9018091DA019091DB01D0
:10347000A091DC01B091DD01C82AD92AEA2AFB2AF1
:10348000CFE1D0E0BC2ED701C6010C2E04C0B6950A
:10349000A795979587950A94D2F780FD0EC021973E
:1034A00088F7B12C8B2DDF91CF911F910F91FF9059
:1034B000EF90DF90CF90BF900895B8018C2F0E94BD
:1034C000FE09019761F3EECFCF93DF93EC010E94E9
:1034D000221ABE01DF91CF910C94FE091F93CF9366
:1034E000DF93EB0190917001992331F0CB01DF91D3
:1034F000CF911F910C94641A882379F0CB010E941C
:10350000221A182F682FCE010E94C819BE01812FE0
:10351000DF91CF911F910C94FE09CB010E94F71906
:10352000182FF4CF682F80910001909101010C9425
:10353000451C682F80910001909101010C94471C5B
:1035400080910001909101010C94491C8091DE0151
:1035500085958595859508958091DE0187700895FC
:103560009091DE01977081E009F480E008958091E8
:10357000EA0108959091EA01892B8093EA01089568
:10358000982F90958091EA0189238093EA0108950C
:103590008093EA0108951092EA0108959091E9015B
:1035A000892B8093E9010895982F90958091E901E6
:1035B00089238093E90108951092E901089590917B
:1035C000E801892B8093E8010895982F90958091C8
:1035D000E80189238093E80108951092E801089595
:1035E0008091DF01089508950C94F31A9091DF0102
:1035F000981721F08093DF010C94F41A08958091BC
:10360000DF01882329F01092DF0180E00C94F41A86
:103610000895E0910001F09101018091EA01808319
:10362000E0910001F091010180819091E901892BE5
:103630008083E0910001F091010180819091E80187
:10364000892B80839091DF01992381F0E091000123
:10365000F09101018081892B8083809100019091FC
:1036600001010E94121C81110E94FF1A8091000129
:10367000909101010C94F60E08950C943C1B98E077
:10368000899F90011124622B6093DE010E942C1906
:103690008091DE018595859585950C943D1B109252
:1036A000DE0180E00C943D1B9091DE018095892322
:1036B0008093DE01282F277071F4282F082E000C2C
:1036C000330B9217130639F08595859585950E94E1
:1036D0004D190C944F1B089590933F0180933E0128
:1036E0000895829590E09C01220F331F220F331F13
:1036F0002C7C95958795959587958373282B30E03D
:10370000C901880F991F8A7A359527952575822BCF
:103710000895CF93DF93D92F0E94711BC82F8D2F4F
:103720000E94711B9C2FDF91CF91089590E080E063
:103730000E94F82C21E08D3E9E4F09F020E0822F60
:10374000089582E090E00C94F02C83E090E00C94DB
:10375000F02C84E090E00C94F02C682F84E090E052
:103760000C94FE2CAB01BC018FE090E00C94102D6A
:10377000AB01BC0183E190E00C94102D60E070E09F
:10378000CB010C94B81B60E070E0CB010E94B21B2F
:103790000C94BE1B6DEE7EEF90E080E00E941C2D2D
:1037A00060E082E090E00E94FE2C60E083E090E028
:1037B0000E94FE2C1092DA011092DB011092DC01C3
:1037C0001092DD0160E084E090E00E94FE2C60E059
:1037D00085E090E00E94FE2C60E086E090E00E9490
:1037E000FE2C6FEF87E090E00E94FE2C40E050E05E
:1037F000BA0188E090E00E94102D60E08DE090E03A
:103800000E94FE2C40E050E0BA0188E190E00E9466
:10381000102D60E087E190E00E94FE2C0C94C31B09
:103820000C94CA1BFC01329697E080E0915009F499
:10383000089521912223D1F38F5FF8CF9C01FC01E1
:1038400032969FEF80E04191461751F09F3F19F467
:10385000411101C0982F8F5F8630A9F79F3F09F46F
:103860000895290F311D97FD3A95F9016283089556
:10387000FC01329608962191261303C0DF011197AF
:103880001C92E817F907B9F708950C941E1C0C94C4
:10389000381C029626E0FC0111922A95E9F708955A
:1038A000089508950C94511C0E94521C8091170297
:1038B000843049F11092EC0188E190E020E40FB6E9
:1038C000F894A895809360000FBE2093600080E07C
:1038D0000E9418080E94521C83B7817F846083BFB6
:1038E00083B7816083BF7894889583B78E7F83BFC9
:1038F0000FB6F894A895809160008861809360006D
:10390000109260000FBE08950895CF930E94501C3E
:103910000E94CB0C0E94841CC0E08C2F0E946A0D78
:10392000892B31F4CF5FC530C1F780E0CF91089586
:1039300081E0FCCF08950C949A1C0E94D7140E9439
:10394000EA0E0E9418080C949B1C1F920F920FB64F
:103950000F9211248F939F93AF93BF938091EC01AB
:10396000811113C080910D0290910E02A0910F025F
:10397000B09110024196A11DB11D80930D0290934C
:103980000E02A0930F02B0931002BF91AF919F91CE
:103990008F910F900FBE0F901F90189582E084BDFD
:1039A00093E095BD9AEF97BD80936E0008952FB771
:1039B000F89480910D0290910E02A0910F02B091A7
:1039C00010022FBF08952FB7F89460910D027091E7
:1039D0000E0280910F02909110022FBF0895CF9296
:1039E000DF92EF92FF920F931F932FB7F8944091BD
:1039F0000D0250910E0260910F02709110022FBFC4
:103A00006A017B01EE24FF248C0130E020E0C01627
:103A1000D106E206F30650F0481B590BCA011F916C
:103A20000F91FF90EF90DF90CF9008954150510992
:103A3000F3CF78941F920F920FB60F9211248F93A9
:103A40009F93AF93BF9380910D0290910E02A0912E
:103A50000F02B09110020196A11DB11D80930D02BD
:103A600090930E02A0930F02B0931002BF91AF91FA
:103A70009F918F910F900FBE0F901F90189587E721
:103A800097E7909301088093000888E19AE00FB6C9
:103A9000F894A895809360000FBE90936000FFCFCC
:103AA0000E94961B811102C00E94101C0E94A11B43
:103AB0008093EB010E94A91B90E0909312028093E7
:103AC00011020E94A51B682F70E090E080E00C942A
:103AD000CA188091F00180FF12C06091050185E055
:103AE000689FB00111247595679575956795603845
:103AF0007105A8F561157105A1F1862F089581FF63
:103B000009C06091050185E0689FB0011124759599
:103B10006795EDCF82FF07C06091050185E0689F42
:103B2000B0011124E4CF2091EF012223A9F090915C
:103B300004016091050185E0689FB00111242917F7
:103B4000B0F6269FA001279F500D1124692F70E029
:103B5000CA010E94C22CCBCF65E070E0CECF8FE7C8
:103B6000089581E008958091F00180FF0CC060917C
:103B7000030170E0759567957595679561157105F9
:103B800049F1862F089581FF06C06091030170E01E
:103B900075956795F3CF6091030182FD0BC09091FD
:103BA000EF019923A1F06091020180910301961722
:103BB00038F0682F70E06038710500F38FE70895E2
:103BC000899FC001112470E00E94C22CF4CF61E0F3
:103BD00070E0D7CF81E00895803F31F40E94691DE5
:103BE00081958093F4010895813F19F40E94691D25
:103BF000F8CF823F31F40E94691D81958093F301D3
:103C00000895833F19F40E94691DF8CF893F29F474
:103C10000E94B31D8093F50108958A3F21F40E940C
:103C2000B31D8195F7CF8B3F31F40E94B31D819571
:103C30008093F60108958C3F19F40E94B31DF8CFCC
:103C4000843F31F48091F20181608093F201089504
:103C5000853F21F48091F2018260F7CF863F21F405
:103C60008091F2018460F1CF873F21F48091F201CD
:103C70008860EBCF883F21F48091F2018061E5CF2D
:103C80008D3F31F48091F00181608093F0010895BF
:103C90008E3F21F48091F0018260F7CF8F3FB9F71A
:103CA0008091F0018460F1CF803FC1F48091F401F4
:103CB00087FD1092F4018091F30181110EC0809173
:103CC000F40181110AC08091F501811106C0809133
:103CD000F601811102C01092EF010895813F29F48D
:103CE0008091F40118162CF3E6CF9091F301823FF6
:103CF00029F497FFE0CF1092F301DDCF833F19F451
:103D00001916CCF3D8CF893F39F48091F5011816F4
:103D100094F61092F501CFCF8A3F29F48091F501F6
:103D200087FFC9CFF6CF8B3F39F48091F60187FF2B
:103D3000C2CF1092F601BFCF8C3F29F48091F601DB
:103D40001816BCF3B8CF843F31F48091F2018E7F16
:103D50008093F201B0CF853F21F48091F2018D7FF5
:103D6000F7CF863F21F48091F2018B7FF1CF873F1F
:103D700021F48091F201877FEBCF883F21F480917D
:103D8000F2018F7EE5CF8D3F31F48091F0018E7F7F
:103D90008093F00190CF8E3F21F48091F0018D7FD0
:103DA000F7CF8F3F09F087CF8091F0018B7FF0CF65
:103DB0008091EB0183FF7EC088E094E00E9453076E
:103DC0008091F2011F928F9383E094E09F938F93F1
:103DD0000E94EC0781E094E00E9453078091F30178
:103DE000282F082E000C330B3F938F938EEF93E018
:103DF0009F938F930E94EC078CEF93E00E945307F0
:103E00008091F401282F082E000C330B3F938F93E1
:103E100089EF93E09F938F930E94EC0787EF93E0E5
:103E20000E9453078091F501282F082E000C330BB8
:103E30003F938F9384EF93E09F938F930E94EC07BF
:103E400082EF93E00E9453078091F601282F082EFD
:103E5000000C330B3F938F938FEE93E09F938F93E0
:103E60000E94EC078CEE93E00E9453078091EF01D3
:103E70001F928F9389EE93E09F938F930E94EC079C
:103E800087EE93E00E9453078091F0011F928F9379
:103E900084EE93E09F938F930E94EC0781EE93E072
:103EA0000E9453078DB79EB74C960FB6F8949EBFED
:103EB0000FBE8DBF81EF91E00E94420F0E94D71C80
:103EC0009093EE018093ED0108951F93CF93DF93BC
:103ED0008091ED019091EE010E94EF1CAC01909158
:103EE000EF012091060130E0911106C020910701F9
:103EF0008AE0289F900111244217530780F0809197
:103F0000F3011091F401D091F501C091F6018111F6
:103F10000AC0111161C0D1115FC0C1115DC0DF9134
:103F2000CF911F9108959F3F19F09F5F9093EF01EC
:103F3000181624F40E94691D8093F3018091F30107
:103F400087FF05C00E94691D81958093F3011116BA
:103F500024F40E94691D8093F4018091F40187FF8D
:103F600005C00E94691D81958093F4014091F30181
:103F7000442379F03091F401332359F025EB4203C7
:103F8000A00111245093F3013203900111243093C6
:103F9000F4011D1624F40E94B31D8093F501809155
:103FA000F50187FF05C00E94B31D81958093F5013F
:103FB0001C1624F40E94B31D8093F6018091F60133
:103FC00087FF05C00E94B31D81958093F601DF91A4
:103FD000CF911F910C94D81E9F3F09F0A6CFB7CF69
:103FE00086E0E1EFF1E0DF011D928A95E9F710929A
:103FF000EF011092F00108958BE296E00E945307C2
:104000001F9281E08F931F9285E08F938DED95E055
:104010009F938F930E94EC070F900F900F900F903B
:104020000F900F900895833009F445C028F4813033
:1040300061F0823049F10895853009F46AC008F4CE
:1040400051C0863009F47CC0089580910701482F43
:10405000460F5527551F4F3F510594F4680F609345
:104060000701809107011F928F9386E195E09F934E
:104070008F930E94EC070F900F900F900F90089570
:104080008FEF80930701EDCF80910601482F460FF7
:104090005527551F4F3F510554F4680F6093060193
:1040A000809106011F928F9384E095E0E0CF8FEF1F
:1040B00080930601F5CF80910501482F460F5527C3
:1040C000551F4F3F510554F4680F609305018091CF
:1040D00005011F928F9381EF94E0C9CF8FEF8093FA
:1040E0000501F5CF80910401482F460F5527551F34
:1040F0004F3F510554F4680F60930401809104010F
:104100001F928F938CED94E0B2CF8FEF80930401D8
:10411000F5CF80910301482F460F5527551F4F3F7C
:10412000510554F4680F60930301809103011F92BD
:104130008F9383EC94E09BCF8FEF80930301F5CFB7
:1041400080910201482F460F5527551F4F3F5105BB
:1041500054F4680F60930201809102011F928F93C3
:1041600088EA94E084CF8FEF80930201F5CF83300B
:10417000C9F128F4813061F0823019F10895853059
:1041800009F452C008F43FC0863009F45EC00895B7
:1041900080910701681790F4861B80930701809136
:1041A00007011F928F9389E994E09F938F930E9458
:1041B000EC070F900F900F900F9008951092070149
:1041C000EECF80910601681750F4861B809306019C
:1041D000809106011F928F9387E894E0E6CF1092BA
:1041E0000601F6CF80910501681750F4861B809375
:1041F0000501809105011F928F9384E794E0D5CF4C
:1042000010920501F6CF80910401681750F4861BC7
:1042100080930401809104011F928F938FE594E0B5
:10422000C4CF10920401F6CF80910301681750F4B7
:10423000861B80930301809103011F928F9386E474
:1042400094E0B3CF10920301F6CF8091020168177A
:1042500050F4861B80930201809102011F928F937C
:104260008BE294E0A2CF10920201F6CFCF93C82F39
:104270001F928F9380E397E09F938F930E94EC07A8
:1042800061E070E080E090E004C0660F771F881F57
:10429000991FCA95D2F70E94CA180F900F900F90DD
:1042A0000F90CF910C94D714CF938B3109F4E2C1C6
:1042B00008F078C18B3009F49FC108F042C1863004
:1042C00009F4ADC148F4853009F47AC187EA9BE06E
:1042D0000E94530780E0B4C1873009F4B3C188302D
:1042E000A9F786E49CE00E94530787E99BE00E94BF
:1042F00053070E94A51B1F928F9384E99BE09F9315
:104300008F930E94EC0782E99BE00E9453070E9472
:10431000A11BC82F8FE79BE00E9453071F92CF93EA
:104320008AE79BE09F938F930E94EC0788E79BE0CE
:104330000E9453078EE69BE00E9453078C2F8170EA
:104340001F928F938BE69BE09F938F930E94EC07C5
:1043500089E69BE00E9453078FE59BE00E9453078C
:10436000C1FB882780F91F928F938CE59BE09F9378
:104370008F930E94EC078AE59BE00E9453078EE42E
:104380009BE00E945307C2FB882780F91F928F93FE
:104390008BE49BE09F938F930E94EC0789E49BE062
:1043A0000E94530780E49BE00E945307C3FBCC2785
:1043B000C0F91F92CF938DE39BE09F938F930E9450
:1043C000EC078BE39BE00E9453070E94A91BC82FB8
:1043D00087E29BE00E9453071F92CF9382E29BE00B
:1043E0009F938F930E94EC0780E29BE00E9453070B
:1043F00087E09BE00E9453078C2F81701F928F9360
:1044000084E09BE09F938F930E94EC078DB79EB74B
:1044100080960FB6F8949EBF0FBE8DBF82E09BE0E2
:104420000E9453078BEE9AE00E945307C1FB882736
:1044300080F91F928F9388EE9AE09F938F930E944A
:10444000EC0786EE9AE00E94530784ED9AE00E9402
:104450005307C2FB882780F91F928F9381ED9AE062
:104460009F938F930E94EC078FEC9AE00E94530772
:104470008DEB9AE00E945307C3FB882780F91F92B7
:104480008F938AEB9AE09F938F930E94EC0788EBBF
:104490009AE00E9453078EEA9AE00E945307C4FBF9
:1044A000882780F91F928F938BEA9AE09F938F93CE
:1044B0000E94EC0789EA9AE00E94530787E99AE094
:1044C0000E945307C5FB882780F91F928F9384E9C8
:1044D0009AE09F938F930E94EC0782E99AE00E94F2
:1044E000530786E79AE00E945307C6FB882780F9A6
:1044F0001F928F9383E79AE09F938F930E94EC071C
:1045000081E79AE00E94530789E69AE00E945307E8
:10451000C7FBCC27C0F91F92CF9386E69AE09F9302
:104520008F930E94EC0784E69AE00E9453078DB7B0
:104530009EB74C960FB6F8949EBF0FBE8DBF81E01C
:104540007FC0803109F4AEC080F48E3009F0BECE59
:104550009091EB01892F8B7F92FF84608093EB0118
:1045600082FF9DC082ED9BE091C0863109F4AAC014
:10457000893109F0ABCE8BE898E00E9453078EE5B5
:1045800098E00E94530787E298E00E9453078FEF5C
:1045900097E00E94530789EC97E00E9453078EE949
:1045A00097E02CC08A32A1F1E8F4873269F128F44F
:1045B0008E3108F48BCE8D5128C0893209F086CE19
:1045C0000E94D71485E19CE00E9453079FEF23EDE2
:1045D00080E3915020408040E1F700C000000E943D
:1045E0003F1DADCF833468F48A3308F0A2C0853311
:1045F00059F0883309F06ACE81EC98E00E945307A5
:104600009ECF833409F062CE80E00E94362197CF9E
:1046100085E39CE00E9453070E94101C90CF80917C
:10462000EB01817F8E7F8093EB018AE998E00E9405
:10463000530781E39CE00E94530781E08093F801D7
:10464000CF9108959091EB01892F8E7F90FF81602B
:104650008093EB0180FF03C089E09CE0CFCF8CEF1B
:104660009BE00E9453078091EB01897F877F8093B5
:10467000EB0165CF9091EB01892F8D7F91FF8260D7
:104680008093EB0181FF08C08FEE9BE00E945307EF
:104690008091EB018160EBCF81EE9BE0AFCF82ECAC
:1046A0009BE0ACCF9091EB01892F877F93FF8860CF
:1046B0008093EB0183FF03C086EB9BE0E7CF89EAA1
:1046C0009BE09CCF80E997E00E9453070E94EA0E8E
:1046D0001F928F9386E797E09F938F930E94EC073A
:1046E000809112011F928F938FE597E09F938F9394
:1046F0000E94EC07809105021F928F938CE497E053
:104700009F938F930E94EC070E94E31C9F938F93CB
:104710007F936F9385E397E09F938F930E94EC07BD
:104720008DB79EB742960FB6F8949EBF0FBE8DBF51
:1047300006CF89536ACF80E008950C949B238E5155
:104740008A3030F4E82FF0E0EB5DFE4F8081089571
:1047500080E00895CF93C82F8091F8018130B9F09F
:1047600038F0823009F447C01092F80180E00DC0A3
:104770000E94B71A8232D1F78C2F0E949B2381119D
:104780001BC08C2F0E9454218170CF9108950E94EC
:10479000B71A823289F38C2F0E949D2381111BC08E
:1047A000C431D9F060F4CB3071F0C031D1F086E281
:1047B00097E00E94530713C081E090E0E5CFC93233
:1047C00061F0C833A1F78AE998E00E9453078CE2B0
:1047D00097E00E94530781E0D7CF1092F80180E064
:1047E000D3CF0E94FC1F88E297E00E94530782E02B
:1047F0008093F801F0CFC432C8F4CE3108F0BEC0C7
:10480000CB30E1F040F4C73009F4CCC08AEC95E03D
:104810000E94530726C0C331C1F1C431B9F780915A
:10482000F701882351F11092F7010AC0CB3409F443
:10483000B7C0C8F4C93299F3C83341F70E94FC1FCE
:104840008091F701882309F4C4C01F928F9384ECF0
:1048500095E09F938F930E94EC070F900F900F901D
:104860000F9081E092CFC13509F494C0C23509F4AC
:104870008BC0CE3459F66AE08EC089ED95E00E9477
:10488000530781E08093F80180CF83EB95E00E948D
:10489000530781EA95E00E945307809107011F9218
:1048A0008F938EE995E09F938F930E94EC078CE99C
:1048B00095E00E9453078AE895E00E945307809193
:1048C00006011F928F9387E895E09F938F930E9434
:1048D000EC0785E895E00E94530786E795E00E9483
:1048E0005307809105011F928F9383E795E09F9373
:1048F0008F930E94EC0781E795E00E94530780E6C2
:1049000095E00E945307809104011F928F938DE5DB
:1049100095E09F938F930E94EC078BE595E00E94B2
:10492000530786E495E00E945307809103011F928C
:104930008F9383E495E09F938F930E94EC0781E42B
:1049400095E00E9453078AE295E00E945307809108
:1049500002011F928F9387E295E09F938F930E94AD
:10496000EC0785E295E00E9453078DB79EB7489605
:104970000FB6F8949EBF0FBE8DBF62CF8C2F0E94E2
:104980009F238093F7015CCF61E08091F7010E9443
:10499000132056CF61E08091F7010E94B72050CFDD
:1049A0006AE0F3CF8EE18093070182E380930601F2
:1049B0008AE08093050184E18093040188E080937C
:1049C000030188E2809302018CEC95E00E9453077A
:1049D00037CF81EC95E01CCF8091040208959FB7FA
:1049E000F8941092FB019FBF90911702943009F048
:1049F00049C02091E9002F709091EC0090FD30C0EB
:104A000090E0922B23E02093E9002091EB0020FF1F
:104A100036C02091EE0027FF32C02091F9012223F9
:104A200021F02091E80025FF2AC01092F90126E02C
:104A30003091E80035FF16C08093F1008091E800C6
:104A400085FD29C08091E80080FFFCCF8091E800BF
:104A50008E778093E8009F709093E90080E008953E
:104A600090E8CFCF30911702343049F43091EB0009
:104A700035FD05C0215041F481E08093F9019F701C
:104A80009093E9008FEF0895EFE9FFE03197F1F798
:104A900000C00000CDCF8FB7F89421E02093FB0138
:104AA0008FBFD9CF0F931F93CF93DF9300D01F9267
:104AB000CDB7DEB78C010E940828823011F0843017
:104AC00021F584E089831B830A8382E08093E900D7
:104AD0008FEF9091E800815095FD06C095ED9A9575
:104AE000F1F700008111F5CF8091E80085FF0DC03E
:104AF00050E040E063E070E0CE0101960E9425287E
:104B00008091E8008E778093E8000F900F900F90CF
:104B1000DF91CF911F910F910895CF93DF9300D034
:104B20001F92CDB7DEB720911702243031F523E074
:104B30002983805891099B838A8382E08093E900CE
:104B40008FEF9091E800815095FD06C095ED9A9504
:104B5000F1F700008111F5CF8091E80085FF0DC0CD
:104B600050E040E063E070E0CE0101960E9425280D
:104B70008091E8008E778093E8000F900F900F905F
:104B8000DF91CF910895CF93DF93EC010E94082825
:104B9000823011F08430F9F482E08093E9008FEFE5
:104BA0009091E800815095FD06C095ED9A95F1F73A
:104BB00000008111F5CF8091E80085FF0CC050E026
:104BC00040E066E070E0CE010E9425288091E80078
:104BD0008E778093E800DF91CF910895CF93DF9394
:104BE000EC010E940828823011F0843039F581E010
:104BF0008093E9008FEF9091E800815095FD06C009
:104C000095ED9A95F1F700008111F5CF8091E800BC
:104C100085FF14C050E040E068E070E0CE010E94E3
:104C200025288091E8008E778093E80088E0FE01D7
:104C3000ACEFB1E001900D928A95E1F7DF91CF9151
:104C4000089586E79CE00E94530780911602811127
:104C500009C00E94B5290E94122A8091E200846056
:104C60008093E200089582E79CE00E94530710922F
:104C7000160208958EE69CE00C9453078AE69CE0A9
:104C80000C94530786E69CE00E9453070C949D1CED
:104C90002091FA012F5F822F62E30E94B62C9923A4
:104CA00019F02093FA0108951092FA018091FB0106
:104CB0008823E9F0809117028430B9F49091E900DB
:104CC0009F708091EC0080FD13C080E0892B93E001
:104CD0009093E9009091EB0090FF04C09091EE005A
:104CE00097FD0AC08F708093E9001092FB01089530
:104CF00080E8ECCF1092F1009091E80095FDFACF9A
:104D00009091E80090FFEECF9091E8009E7790930D
:104D1000E800E8CF42E061EC81E00E94332942E202
:104D200061EC82E00E94332942E261EC83E00C9462
:104D3000332980911902833009F462C030F4813044
:104D4000D9F1823009F49EC008958A3009F48AC0EE
:104D50008B3009F470C0893009F051C0809118027D
:104D6000813209F04CC080911C0290911D02029783
:104D700008F045C08091E800877F8093E80080912B
:104D8000E80082FF38C08091F3009091F2008927FB
:104D900098278927029729F48091F1008B7F813031
:104DA00021F48091F100809304028091E8008B77D8
:104DB0008093E8000C94672980911802813AF9F4F5
:104DC0008091E800877F8093E80080911C02909199
:104DD0001D02892B61F468E08CEF91E070E00E9485
:104DE00074288091E8008B778093E800089560E054
:104DF00090E080E0F3CF809117028111C0CF089539
:104E000080911802813AD9F780911C0290911D027D
:104E1000892BA9F78091E800877F8093E800809133
:104E2000E80080FFFCCF809112018093F100809117
:104E3000E8008E77BDCF80911802813201F7809112
:104E40001C0290911D02892BD1F68091E800877F8A
:104E50008093E8000E94672980911A0280931201D2
:104E60000C94D71480911802813249F68091E800A1
:104E7000877F8093E8000E94672980911B028093BE
:104E80000502089580911802813A09F0B8CF809107
:104E9000E800877F8093E8008091E80080FFFCCFE6
:104EA00080910502C2CF84B7877F84BF0FB6F89484
:104EB000A8958091600088618093600010926000E6
:104EC0000FBE80E880936100109261000E948A0FFB
:104ED0000E94B5290E94122A8091E200846080938A
:104EE000E2008FEE94E20E946C1B78940E949A2C50
:104EF0000E94920F88E091E00E94E50E85E59CE01B
:104F00000E94530780911702853019F00E94C20F4A
:104F1000F9CF81E59CE00E9453070E94541C8091C8
:104F20001502882379F30E94851C882359F30E9477
:104F30000F28E8CF0C949C27292F332723303105E5
:104F400079F158F421303105F1F02230310519F1B1
:104F500090E080E030E020E01AC021323105C9F154
:104F600022323105A9F76330710590F7FB01EE0F8E
:104F7000FF1FEE5CFE4F20813181615D7E4FFB01A2
:104F8000808190E004C082E190E023E03DE0FA01FE
:104F90003183208308958BE590E028EA3CE0F7CF49
:104FA00099278130910579F040F08230910571F0B8
:104FB000039771F6EAE7FCE002C0E4EAFCE08491C2
:104FC00090E09F01E4CFE4E9FCE0F9CFE0E8FCE009
:104FD000F6CF6330710508F0BBCF660F771FFB017A
:104FE000E85CFE4F2081318189E090E0D0CF0895C8
:104FF000CF93C82F0E94F727C0930602CF91089540
:1050000080911702843011F081E0089582E00895C4
:1050100080910602811102C00C940028089580E15D
:1050200089BD82E189BD09B400FEFDCF8091D80021
:105030008F7D8093D8008091E00082608093E000B3
:105040008091E00081FDFCCF0895AF92BF92CF9296
:10505000DF92FF920F931F93CF93DF936C01EB01CD
:105060008A010E948629F82E811123C0011511059D
:1050700039F0F80180819181C81BD90BC80ED91E67
:10508000B12CA12C2097A9F08091E80085FD22C0C9
:105090008091E8008E778093E80001151105A1F05A
:1050A000F80180819181A80EB91EB182A08285E0AD
:1050B000F82E8F2DDF91CF911F910F91FF90DF90F0
:1050C000CF90BF90AF9008950E9486298823D1F297
:1050D000F82EEFCFF60181916F018093F1002197B7
:1050E000FFEFAF1ABF0ACECFFC0180911E02909154
:1050F0001F0286179707A0F06115710529F490919A
:10510000E8009E779093E80090E06115710551F4F6
:10511000911108C08091E80082FF35C080E00895B9
:10512000BC01F2CF809117028823C9F18530C9F103
:105130008091E80083FD31C08091E80082FDEACFD4
:105140008091E80080FFE1CF2091F3008091F20090
:10515000322F282F6115710519F02830310558F0CC
:1051600091E02830310509F090E02091E8002E7799
:105170002093E800CACF81918093F10061507109BA
:105180002F5F3F4FE7CF80911702882341F0853092
:1051900041F08091E80083FFBDCF81E0089582E077
:1051A000089583E00895FC0180911E0290911F02F2
:1051B00086179707A0F06115710529F48091E80022
:1051C0008E778093E80090E06115710551F491119C
:1051D00008C08091E80082FF36C080E00895BC01DD
:1051E000F2CF809117028823D1F18530D1F18091DF
:1051F000E80083FD32C08091E80082FDEACF809113
:10520000E80080FFE1CF2091F3008091F200322F7F
:10521000282F6115710519F02830310558F091E0FB
:105220002830310509F090E08091E8008E77809376
:10523000E800CACF84918093F100319661507109E2
:105240002F5F3F4FE6CF80911702882341F08530D2
:1052500041F08091E80083FFBCCF81E0089582E0B7
:10526000089583E00895982F973028F08F708093E9
:10527000E90081E008959093E900242F762F50E013
:10528000981731F07091EC002091ED005091F000F2
:1052900021FD02C09F5FE8CF3091EB003E7F30934D
:1052A000EB003091ED003D7F3093ED003091EB004D
:1052B00031603093EB007093EC002093ED0050933D
:1052C000F0002091EE0027FDE5CF80E00895809169
:1052D000180287FF13C08091E80082FF06C080910A
:1052E000E8008B778093E80004C080911702811159
:1052F000F2CF0895809117028823D9F38091E800B6
:1053000080FFF8CF8091E8008E77ECCF2091E40009
:105310003091E50085E69091EC0090FF06C09091F9
:10532000E80090FF06C080E008959091E80092FDAB
:10533000FACF90911702992391F0953091F09091C6
:10534000EB0095FD10C04091E4005091E50024175A
:10535000350709F381509A01F1F684E0089582E05F
:10536000089583E0089581E008950E94232A0E9411
:105370002B2AE0EEF0E0808181608083E8EDF0E0B0
:1053800080818F77808319BCA7EDB0E08C918E7FF0
:105390008C9380818F7E80831092160208950F93E4
:1053A0001F93CF93DF930E94232A0E942B2AC8EDDC
:1053B000D0E088818F77888388818068888388811E
:1053C0008F7D888319BC10921702109213021092DD
:1053D00015021092140200EE10E0F80180818B7F1C
:1053E000808388818160888342E060E080E00E9461
:1053F0003329E1EEF0E080818E7F8083E2EEF0E001
:10540000808181608083808188608083F8018081D1
:105410008E7F8083888180618883DF91CF911F9107
:105420000F910895E8EDF0E080818F7E8083E7EDB5
:10543000F0E080818160808384E082BF81E080939E
:1054400016020C94CF29E8EDF0E080818E7F8083F6
:105450001092E20008951092DA001092E10008958F
:105460001F920F920FB60F9211242F933F934F93D9
:105470005F936F937F938F939F93AF93BF93EF93BC
:10548000FF938091E10082FF0BC08091E20082FFD8
:1054900007C08091E1008B7F8093E1000E94482645
:1054A0008091DA0080FF19C08091D80080FF15C07C
:1054B0008091DA008E7F8093DA008091D90080FF9E
:1054C00094C080E189BD82E189BD09B400FEFDCFB1
:1054D00081E0809317020E9421268091E10080FFE5
:1054E00019C08091E20080FF15C08091E2008E7F9C
:1054F0008093E2008091E20080618093E2008091DD
:10550000D80080628093D80019BC85E08093170290
:105510000E943E268091E10084FF29C08091E20034
:1055200084FF25C080E189BD82E189BD09B400FE08
:10553000FDCF8091D8008F7D8093D8008091E100CD
:105540008F7E8093E1008091E2008F7E8093E20065
:105550008091E20081608093E200809113028823B1
:1055600009F449C084E0809317020E94422680918A
:10557000E10083FF29C08091E20083FF25C0809174
:10558000E100877F8093E10082E080931702109210
:1055900013028091E1008E7F8093E1008091E20010
:1055A0008E7F8093E2008091E20080618093E20030
:1055B00042E060E080E00E9433298091F000886042
:1055C0008093F0000E943A26FF91EF91BF91AF9136
:1055D0009F918F917F916F915F914F913F912F910B
:1055E0000F900FBE0F901F90189519BC10921702C4
:1055F0000E94332672CF8091E30087FD02C081E0D4
:10560000B2CF83E0B0CF1F920F920FB60F9211244A
:105610002F933F934F935F936F937F938F939F93BA
:10562000AF93BF93CF93EF93FF93C091E900CF70F7
:105630008091EC001092E9008091F000877F8093C8
:10564000F00078940E943F2B1092E9008091F000C6
:1056500088608093F000C093E900FF91EF91CF91B3
:10566000BF91AF919F918F917F916F915F914F917A
:105670003F912F910F900FBE0F901F9018951F9381
:10568000CF93DF93CDB7DEB7AA970FB6F894DEBFFE
:105690000FBECDBFE8E1F2E08091F100819322E0FE
:1056A000E032F207C9F70E9499268091E80083FF53
:1056B00044C080911802909119029A3008F03DC0C0
:1056C000E92FF0E0EA59F44D0C94D62C702B962B70
:1056D0009D2B962B9D2BF42B162C9D2B6D2C7A2C11
:1056E000803889F0823849F580911C028F708730AC
:1056F00020F58093E9008091EB0085FB882780F9F5
:105700001092E90006C08091140290911502911147
:1057100082609091E800977F9093E8008093F10079
:105720001092F1008091E8008E772DC0282F2D7FF8
:1057300021F48823D1F0823059F18091E80083FF71
:105740000AC08091E800877F8093E8008091EB0099
:1057500080628093EB00AA960FB6F894DEBF0FBE6E
:10576000CDBFDF91CF911F91089580911A028130B2
:1057700021F7933009F080E0809315021092E90040
:105780008091E800877F8093E8000E946729D5CF49
:1057900080911A028111F2CF80911C028F702FEF3D
:1057A000280F263050F68093E9002091EB0020FF6F
:1057B000E5CF933031F48091EB0080628093EB0071
:1057C000DDCF9091EB0090619093EB0021E030E011
:1057D00001C0220F8A95EAF72093EA001092EA00AE
:1057E0008091EB008860EACF8111A7CF10911A0257
:1057F0001F778091E3008078812B8093E300809174
:10580000E800877F8093E8000E9467298091E80084
:1058100080FFFCCF8091E30080688093E30083E009
:10582000111101C082E08093170287CF8058823027
:1058300008F083CF80911A0290911B028C3D23E0E7
:105840009207A1F583E08A838AE289834FB7F894AF
:10585000DE01139620E03EE051E2E32FF0E05093AA
:105860005700E49120FF03C0E295EF703F5FEF70B7
:105870008E2F90E0EA30C0F0C7968D939D932F5FF6
:10588000243159F74FBF8091E800877F8093E8006B
:105890006AE270E0CE0101960E9474288091E800CF
:1058A0008B778093E80049CFC096E7CF60911C02C8
:1058B00070911D02AE014F5F5F4F0E949A27BC019D
:1058C000892B09F43ACF9091E800977F9093E800F4
:1058D00089819A810E94D328E1CF803809F02DCFA9
:1058E0008091E800877F8093E80080911302809385
:1058F000F10018CF811121CF90911A02923008F057
:105900001CCF8091E800877F8093E800909313027A
:105910000E94672980911302882331F084E08093EC
:1059200017020E948A2609CF8091E30087FDF6CFF7
:1059300081E0F5CFCF9380911702882399F0C09131
:10594000E900CF708091EC0080FD0EC080E0C82B94
:105950001092E9008091E80083FD0E943F2BCF70F8
:10596000C093E900CF91089580E8F1CF991B79E0C9
:1059700004C0991F961708F0961B881F7A95C9F7DF
:105980008095089597FB072E16F4009407D077FDB5
:1059900009D00E94DC2C07FC05D03EF4909581953F
:1059A0009F4F0895709561957F4F0895EE0FFF1FEB
:1059B0000590F491E02D0994AA1BBB1B51E107C08F
:1059C000AA1FBB1FA617B70710F0A61BB70B881F8F
:1059D000991F5A95A9F780959095BC01CD0108951E
:1059E000F999FECF92BD81BDF89A992780B50895A7
:1059F000A8E1B0E042E050E00C94242D262FF99964
:105A0000FECF92BD81BDF89A019700B4021639F01D
:105A10001FBA20BD0FB6F894FA9AF99A0FBE0895EE
:105A20000396272F0E94FF2C0E94FE2C252F0E94F8
:105A3000FF2C242F0C94FF2C0196272F0E94FF2C63
:105A40000C94FE2CDC01CB01FC01F999FECF06C0C1
:105A5000F2BDE1BDF89A319600B40D92415050402C
:085A6000B8F70895F894FFCF98
:105A6800E0012808140A321EEC24EE25C3258D25F2
:105A7800522501F4F5F6F7313332363534C69766D8
:105A880092939190940102030405060708090040C7
:0E5A98008522BC0D370D150DBA0CD30CEC0C8D
:00000001FF
