:100000000C9495070C94DC070C94DC070C94DC072B
:100010000C94DC070C94DC070C94DC070C94DC07D4
:100020000C94DC070C94DC070C94CB2A0C949D2BCD
:100030000C94111D0C94DC070C94DC070C94DC0769
:100040000C94DC070C94DC070C94DC070C94DC07A4
:100050000C94DC070C94851D0C94DC070C94DC07D5
:100060000C94DC070C94DC070C94DC070C94DC0784
:100070000C94DC070C94DC070C94DC070C94DC0774
:100080000C94DC070C94DC070C94DC070C94DC0764
:100090000C94DC070C94DC070C94DC070C94DC0754
:1000A0000C94DC070C94DC070C94DC0777097909C5
:1000B00084097B097D097F098109830986098809EB
:1000C0008A0995098C098E09900992099409970962
:1000D000E712E7121913191357137713E714E714EC
:1000E000B913E71466146614D714E714E714E01480
:1000F00073147314731473147314731473147314C8
:1001000073147314731473147314731473147314B7
:10011000841492149914A014AA14761576158815CF
:1001200088157F1588158815881576157615841518
:100130008815881584150A2C312C232D312C232D5C
:100140007D2CA02C232DF62C052D35001E001F0024
:1001500020002100220000002300240025002600AA
:1001600027002A002B0014001A00080015001700B1
:1001700000001C0018000C001200130028002900C9
:1001800004001600070009000A0000000B000D0023
:100190000E000F0033003400E1001D001B000600BC
:1001A0001900050002511100100036003700380018
:1001B000E500E000000000000000E3002C00E50086
:1001C0002961E600000000000351000035001E0018
:1001D000010020002100220000002300240025004F
:1001E000260027002A002B0014001A000900130023
:1001F0000A0000000D000F0018001C00330028004A
:1002000029000400150016001700070000000B006D
:10021000110008000C0012003400E1001D001B005A
:1002200006001900050004510E00100036003700CA
:100230003800E100E000000000000000E3002C00B6
:10024000E5002961E6000000000003510000000005
:10025000000000000000000000000000000000009E
:100260000000000000000000000000003302260231
:1002700027022D00000000002A00000000000000FE
:1002800000000000000000002F0030002E000000E1
:100290005000510052004F0000000000000000001C
:1002A000000000000000310001000000000000001C
:1002B000000000000000000000000000010001003C
:1002C000010001000100010000000000000000002A
:1002D0000000005201520000000000000000000079
:1002E0000000000000000000095C000000000000A9
:1002F00000000000000000000000AE000000000050
:1003000000000000000000000000000000000000ED
:100310000000AC00AA00A900AB0000000000000033
:1003200000000000000000000000000000000000CD
:1003300000000000000000000000000000000000BD
:1003400000000000000000000000000000000100AC
:10035000000000000000000000000000000000009D
:10036000000000000000000000000000000000008D
:100370003302260227022D00000051004F002A0000
:100380002600270000000000000000002F003000C1
:100390002E00000050002200230024002500000051
:1003A00001000000000000000000310001005200C8
:1003B0001E001F00200021000100010000000000BD
:1003C0000000010001000100010001000000000028
:1003D000000000000000000000000000000000001D
:1003E000000000000000000000000000000000000D
:1003F00000000000000000000000000000000000FD
:1004000000000000000000000000000000000000EC
:1004100000000000000000000000000000000000DC
:1004200000000000000000000000000000000000CC
:1004300000000000000000000000000000000000BC
:1004400000000000000000000000000000000000AC
:1004500000000000000044454255473A20656E61A7
:10046000626C65642E0A000A002530313662003A5B
:10047000200025303258000A722F63203031323389
:100480003435363738394142434445460A00556EC3
:1004900069636F646520696E707574206D6F646543
:1004A0002073657420746F3A2025750A00556E69B3
:1004B000636F646520696E707574206D6F6465206C
:1004C000696E697420746F3A2025750A000A002548
:1004D00030325820006B6579626F6172645F7265BB
:1004E000706F72743A20000A0025303258006B6534
:1004F00079626F6172645F7365745F6C65643A20E2
:1005000000290A002575002F002575005D280025AB
:10051000640020002564002000256400200025647C
:10052000007C0025303258006D6F7573656B6579FE
:10053000205B62746E7C782079207620685D28725A
:1005400065702F61636C293A205B006D6B5F776883
:1005500065656C5F74696D655F746F5F6D61782050
:100560003D2025640A006D6B5F776865656C5F6D83
:1005700061785F7370656564203D2025640A006DB5
:100580006B5F74696D655F746F5F6D6178203D208E
:1005900025640A006D6B5F6D61785F7370656564DB
:1005A000203D2025640A006D6B5F696E746572766C
:1005B000616C203D2025640A006D6B5F64656C6191
:1005C00079203D2025640A006D6B5F776865656C56
:1005D0005F74696D655F746F5F6D6178203D202584
:1005E000640A006D6B5F776865656C5F6D61785F4D
:1005F0007370656564203D2025640A006D6B5F742F
:10060000696D655F746F5F6D6178203D2025640AB8
:10061000006D6B5F6D61785F7370656564203D2070
:1006200025640A006D6B5F696E74657276616C207B
:100630003D2025640A006D6B5F64656C6179203D27
:100640002025640A000A00257500363A207768657F
:10065000656C5F74696D655F746F5F6D61783A207A
:10066000000A00257500353A20776865656C5F6D76
:1006700061785F73706565643A20000A0025750033
:10068000343A2074696D655F746F5F6D61783A20EC
:10069000000A00257500333A206D61785F7370653C
:1006A00065643A20000A00257500323A20696E74AC
:1006B000657276616C286D73293A20000A002575F1
:1006C00000313A2064656C6179282A31306D7329D4
:1006D0003A20000A092D2056616C756573202D0A99
:1006E000004D3E004D25643E20003F0073657420A0
:1006F00064656661756C740A00433E200077686526
:1007000072652064656C74613A20637572736F72F0
:100710003D25642C20776865656C3D25640A53652A
:100720006520687474703A2F2F656E2E77696B6937
:1007300070656469612E6F72672F77696B692F4DE1
:100740006F7573655F6B6579730A000A092D204D1B
:100750006F7573656B6579202D0A4553432F713A88
:1007600009717569740A313A0964656C6179282ADE
:1007700031306D73290A323A09696E746572766197
:100780006C286D73290A333A096D61785F7370655F
:1007900065640A343A0974696D655F746F5F6D61F1
:1007A000780A353A09776865656C5F6D61785F73C3
:1007B000706565640A363A09776865656C5F7469C7
:1007C0006D655F746F5F6D61780A0A703A097072C7
:1007D000696E742076616C7565730A643A09736595
:1007E000742064656661756C74730A75703A092BC0
:1007F000310A646F776E3A092D310A706775703A65
:10080000092B31300A7067646F776E3A092D3130E9
:100810000A0A7370656564203D2064656C7461200C
:100820002A206D61785F7370656564202A202872C4
:100830006570656174202F2074696D655F746F5FEA
:100840006D6178290A003F004D3E2000433E2000A4
:100850004C25640A0074696D65725F72656164336A
:100860003228293A202530346C580A006B657962A9
:100870006F6172645F69646C653A2025580A006B89
:100880006579626F6172645F70726F746F636F6CB1
:100890003A2025580A00686F73745F6B6579626F40
:1008A0006172645F6C65647328293A2025580A00D8
:1008B0000A092D20537461747573202D0A00474373
:1008C000433A20342E392E32204156522D4C494283
:1008D000433A20312E382E3073766E204156525FC7
:1008E000415243483A20617672350A004F505449CC
:1008F0004F4E533A204C554641204D4F5553454B92
:1009000045592045585452414B455920434F4E5369
:100910004F4C4520434F4D4D414E442034303936E5
:100920000A004255494C443A2022302E362E3332AA
:10093000332D362D673637636139652220283139EA
:100940003A32333A3035204D61722032372032301E
:100950003139290A005649443A2030784645454401
:100960002850726F66657429205049443A203078C7
:100970003630363228417472657573363229205606
:1009800045523A203078303030310A0044455343E4
:100990003A20712E6D2E6B2E206B6579626F61721D
:1009A00064206669726D7761726520666F7220419E
:1009B000747265757336320A000A092D2056657205
:1009C00073696F6E202D0A000A092D20436F6E7324
:1009D0006F6C65202D0A4553432F713A0971756973
:1009E000740A6D3A096D6F7573656B65790A000A53
:1009F000092D204D61676963202D0A443A09446539
:100A0000627567204D65737361676520546F676712
:100A10006C650A583A094D617472697820446562C0
:100A20007567204D6F646520546F67676C65202D76
:100A30002053686F77206B65797072657373657387
:100A400020696E206D617472697820677269640A2A
:100A50004B3A094B6579626F617264204465627537
:100A60006720546F67676C65202D2053686F77206F
:100A70006B65797072657373207265706F72740A3A
:100A80004D3A094465627567204D6F757365205452
:100A90006F67676C650A563A0956657273696F6EBF
:100AA0000A533A095374617475730A433A094163EE
:100AB00074697661746520436F6E736F6C65204D49
:100AC0006F64650A46312D4631303A0953776974AF
:100AD000636820746F204C6179657220302D392055
:100AE00028463130203D204C30290A302D393A0932
:100AF00053776974636820746F204C617965722044
:100B0000302D390A47524156453A09537769746383
:100B10006820746F204C6179657220302028616CE8
:100B20007465726E617465290A423A094A756D707E
:100B300020746F20426F6F746C6F616465720A4538
:100B400053433A094A756D7020746F20426F6F7479
:100B50006C6F616465722028616C7465726E61747B
:100B600065290A453A095072696E7420454550520C
:100B70004F4D2053657474696E67730A4253504138
:100B800043453A09436C65617220454550524F4DCB
:100B90000A000A002575002E6E6B726F3A20000A5B
:100BA000002575002E737761705F6261636B736CF3
:100BB0006173685F6261636B73706163653A2000A3
:100BC0000A002575002E737761705F677261766524
:100BD0005F6573633A20000A002575002E6E6F5F13
:100BE0006775693A20000A002575002E73776170D9
:100BF0005F72616C745F726775693A20000A002544
:100C000075002E737761705F6C616C745F6C6775D3
:100C1000693A20000A002575002E636170736C6FBD
:100C2000636B5F746F5F636F6E74726F6C3A2000FA
:100C30000A002575002E737761705F636F6E7472A2
:100C40006F6C5F636170736C6F636B3A20000A00B6
:100C500025303258006B65796D61705F636F6E6629
:100C600069672E7261773A20000A002575002E6DA3
:100C70006F7573653A20000A002575002E6B657943
:100C8000626F6172643A20000A002575002E6D6162
:100C9000747269783A20000A002575002E656E612D
:100CA000626C653A20000A002530325800646562A3
:100CB00075675F636F6E6669672E7261773A2000B1
:100CC0000A0025750064656661756C745F6C6179F6
:100CD00065723A20003F000A6D6F7573653A206FA8
:100CE00066660A000A6D6F7573653A206F6E0A00BA
:100CF0000A6B6579626F6172643A206F66660A00FA
:100D00000A6B6579626F6172643A206F6E0A000A3D
:100D10006D61747269783A206F66660A000A6D61C7
:100D2000747269783A206F6E0A000A6465627567AA
:100D30003A206F66660A000A64656275673A206F3A
:100D40006E0A000A0A4A756D70696E6720746F201A
:100D5000626F6F746C6F616465722E2E2E2000437B
:100D60003E2000436C656172696E672045455052B4
:100D70004F4D0A006565636F6E6669673A0A005BEE
:100D8000735D004B6579626F617264207374617288
:100D9000742E0A005B575D005B535D005B525D0083
:100DA0005B445D005B435D00040330000000120300
:100DB0004100740072006500750073003600320057
:100DC00000000E03500072006F00660065007400A2
:100DD00000000403090409025B00030100A0FA09F2
:100DE000040000010301010009211101000122405A
:100DF000000705810308000A09040100010300003F
:100E0000000921110100012285000705820320004D
:100E10000A09040200020300000009211101000177
:100E20002222000705830320000107050303200099
:100E3000011201100100000008EDFE6260010001D6
:100E40000203010631FF0974A1010975150026FF8F
:100E5000009520750881020976150026FF0095206F
:100E600075089102C005010902A10185020901A1CD
:100E70000005091901290515002501950575018150
:100E8000029501750381010501093009311581259C
:100E90007F95027508810609381581257F950175B2
:100EA000088106050C0A38021581257F9501750811
:100EB0008106C0C005010980A10185031601002635
:100EC00003001A81002A8300751095018100C00576
:100ED0000C0901A1018504160100269C021A0100DB
:100EE0002A9C02751095018100C005010906A10127
:100EF000050719E029E7150025019508750181020C
:100F000095017508810105081901290595057501E7
:100F100091029501750391010507190029FF15003C
:100F200026FF00950675088100C011241FBECFEF73
:100F3000DAE0DEBFCDBF04B603FE27C080912002F9
:100F400090912102A0912202B09123028730904B10
:100F5000A740B04BD1F410922002109221021092BF
:100F600022021092230214BE84B7877F84BF0FB67B
:100F7000F894A89580916000886180936000109239
:100F800060000FBEE0E0F8E3099511E0A0E0B1E0F9
:100F9000E8EAFBE502C005900D92AE33B107D9F740
:100FA00022E0AEE3B1E001C01D92A032B207E1F74A
:100FB0000E94E6270C94D22D0C940000FF93EF932F
:100FC000E0913E01F0913F01309709F00995EF91D2
:100FD000FF910895FC018591803011F0EFDFFBCF88
:100FE0000895FF27E0E230E247FF0CC0419597FFEC
:100FF00009C0EDE26095709580959095611D711D19
:10100000811D911D27FF02C0219530E350E2AA27E0
:10101000660F771F881F991FAA1FA41710F0A41B23
:1010200063955A95A9F7AA3008F0A95FA05DAF9320
:10103000F395611571058105910541F7ED3211F4C4
:10104000EF93F395F21718F43F93F395FBCF8F913D
:10105000B5DFFA95E1F70895E991F991859180302E
:1010600021F0853219F0AADFF9CF089520E0E89445
:1010700055915532C1F3503311F4689455915A3358
:1010800048F4505390F3220F022E220F220F200D0E
:10109000250FF4CF0EF4219589919991533619F3C8
:1010A000533729F1533559F1BC0188279927E89422
:1010B0005C3621F48991999168945591543639F4AC
:1010C00046EF7EF077FF0DC08FEF9FEF0AC05537D8
:1010D0004AE039F0583540E121F0523642E009F05B
:1010E0000895FF93EF937DDFEF91FF91B7CFFF93CB
:1010F000EF93FC0181918030B9F360DFFBCFFF9368
:10110000EF9368DFF1CFDF93CF93CDB7DEB72596AE
:10111000A3DFCF91DF91089581E0089581E00895E4
:101120000C948E080E94031C811102C00E947D1C39
:101130000E94540E0C94C70C0C94CA0C282F2F70CC
:1011400041F0822F90E02A3010F44D9608950697D2
:10115000089587E290E0089508950C94AC080C94EB
:10116000AD0808950E9466150E94B1082FEF84E330
:101170009CE0215080409040E1F700C0000087E7EC
:1011800097E790930108809300080C94AB1DFF92A1
:101190000F931F93CF93DF938C01FC01C081D1810A
:1011A00080917001811113C08281882349F0CE01A2
:1011B0000E949B1AF82E682FCE010E94401A04C08C
:1011C000CE010E946F1AF82EBE018F2D04C0CE01F1
:1011D0000E949B1ABE010E94550AEC01B8010E94B0
:1011E0009008882309F456C1B801CE010E94FC0E74
:1011F000882309F44FC1C73DFCE5DF0719F5F80165
:101200008281882351F0109245010E94431D9093E2
:1012100042018093410182E032C0809145018111F9
:101220000FC080914101909142010E945B1D883C5A
:10123000910530F486E20E94FA1086E20E94331291
:1012400082E026C0C83D8CE5D80728F1CC3D8CE56E
:10125000D80709F4D1C008F0D6C0C83DFCE5DF07C7
:1012600009F0EFC0F8018281882361F010924601F5
:101270000E94431D909344018093430180E20E94A9
:10128000A31208C180914601882309F4C9C080E2F5
:101290000E94AA12FFC0C531ECE5DE0708F082C04B
:1012A000C230FCE5DF0708F452C0F80182818823D0
:1012B00009F459C00E94031C811102C00E947D1CC8
:1012C0000E94161C90E09093120280931102FE017E
:1012D000E350FC45E231F10530F4EA5AFF4F8091CA
:1012E00011020C94762D80911102816027C08260DA
:1012F00025C0846023C0806121C080621FC08064DB
:101300001DC080681BC08460886018C08E7F16C0B6
:101310008D7F14C08B7F12C08F7E10C08F7D0EC05A
:101320008F7B0CC08F770AC08B7F877F07C087FBBE
:10133000222720F991E0922790FB87F980931102F0
:10134000809111020E941A1C0E946615A3C0C1154B
:101350008CE5D80781F0C130DC45A9F081E08093AD
:10136000450180934601C801DF91CF911F910F91F4
:10137000FF900C948C08F8018281882309F48AC0BC
:101380000E94B20887C0F8018281882309F482C0D4
:101390008091EB0181608093EB0186E594E00E94EF
:1013A000EA0778C0C631DC45C9F60E941B1B282F0E
:1013B000F80182814091000150910101882379F068
:1013C0002A7A91E009F490E090934001911102C0D3
:1013D00069E201C065E3CA010E94B11C0AC08091A4
:1013E0004001811102C069E201C065E3CA010E94A7
:1013F000B31C0E946A1B4EC0F8018281882309F445
:1014000049C080E00AC0CD3DECE5DE07D1F5F8012A
:101410008281882309F43EC082E00E948E283AC06F
:1014200080914301909144010E945B1D883C91058D
:1014300008F02DCF87E20E94FA1087E20E94331253
:1014400026CFC93DDC4509F089CFF80182818111A1
:101450000DCF8091460181111ACF80914301909167
:1014600044010E945B1D883C910508F010CF80E28A
:101470000E94AA1288E20E94FA1088E20E943312A7
:1014800009C0CE3DDC4509F069CFF80182818111A8
:101490000E947D1C80E0DF91CF911F910F91FF9002
:1014A000089580E090E0089508959DE0799FF0010F
:1014B000112491E4899FE00DF11D1124E60FF11D27
:1014C000EE0FFF1FE65BFE4F859194910895880F04
:1014D000991FFC01E959FB4F859194910895CF9391
:1014E000DF930E94550A0E94260CEC01811520E52D
:1014F0009207F0F5811530E4930708F024C1883E87
:10150000910500F5803E910508F09CC1883A91054F
:1015100070F4853A910508F09FC08130910509F477
:1015200091C108F442C1049708F08CC13EC18F3BC1
:10153000910508F49CC0803C910508F436C1805C9C
:101540009109F4C0811540E2940758F4C11581E077
:10155000D80708F077C1C03FD10508F426C1D0658F
:1015600071C1811520E3920708F0E4C09F70DEC0CE
:10157000811535E5930708F044C0811544E59407CB
:1015800008F0F8C0C11582E5D80708F5C11521E5B6
:10159000D20708F0DBC08C2F837021E030E002C05E
:1015A000220F331F8A95E2F73C68CE0174E09695CE
:1015B00087957A95E1F78370382BCF70C695C695DD
:1015C00080E2C89FE0011124C22BD32B3BC12C2FFA
:1015D00026952695CE0183709927C115D34508F02D
:1015E000BAC040E2249F90011124C1E0D0E002C0C3
:1015F000CC0FDD1F8A95E2F72C2B3D2BE901DC682F
:1016000021C1811549E59407A0F4C11588E5D807E3
:1016100008F0B5C0C11526E5D20708F0C6C08C2F6A
:101620000E94A30C8F71C82FD0E0DC2FCC27D06292
:1016300009C181153AE5930708F4A6C090568115B3
:10164000904208F0B2C08D2F8F710E94A30CDD274D
:10165000D0628F71D82BF6C0853A910509F4A8C0E5
:10166000863A910509F0A7C0C2E8D0E4EBC0883AF9
:10167000910509F4A3C0893A910509F4A2C08A3AF8
:10168000910509F4A1C08B3A910509F4A0C08C3AE8
:10169000910509F49FC08B3B910509F49EC08C3BDA
:1016A000910509F49DC08D3A910509F49CC0803BD9
:1016B000910509F49BC08E3A910509F49AC08F3ABE
:1016C000910509F499C0813B910509F498C0823BCA
:1016D000910509F497C0833B910509F496C0843BBA
:1016E000910509F495C0853B910509F494C0863BAA
:1016F000910509F493C0873B910509F492C0883B9A
:10170000910509F491C0893B910509F490C08D3B86
:10171000910509F48FC08E3B910509F48EC08A3B78
:10172000910509F48DC0C0E0D4E48CC00E94670A22
:10173000EC0188C09927D3FF03C0EC01D86C82C0AC
:10174000EC01D06C7FC0DF70D06A7CC0DC2FCC276E
:10175000C16FD06A77C040E2249F90011124C1E09C
:10176000D0E002C0CC0FDD1F8A95E2F7C22BD32B4D
:10177000DA6868C0D82FCC27C46FD06A63C0DC2F6A
:10178000CC27C06FD06A5EC08F700E94A30C94E01B
:10179000D695C7959A95E1F7CF70D0E0DC2FCC278E
:1017A000D06A8F70806EC82B4DC0C0E0D0E04AC0B8
:1017B000C1E8D0E447C0C3E8D0E444C0C2EED4E4FA
:1017C00041C0C9EED4E43EC0CAEED4E43BC0C5EB90
:1017D000D4E438C0C6EBD4E435C0C3EBD4E432C0A3
:1017E000C4EBD4E42FC0C7EBD4E42CC0CCECD4E4DD
:1017F00029C0CDECD4E426C0C3E8D5E423C0CAE8B0
:10180000D5E420C0C2E9D5E41DC0C4E9D5E41AC0BE
:10181000C1E2D6E417C0C3E2D6E414C0C4E2D6E401
:1018200011C0C5E2D6E40EC0C6E2D6E40BC0C7E2E2
:10183000D6E408C0CFE6D4E405C0C0E7D4E402C0D3
:10184000CAE2D6E4CE01DF91CF91089582389105A6
:1018500049F1B0F48133910509F458C048F4893254
:10186000910509F44EC08A32910509F454C00895D7
:101870008533910509F440C08933910599F00895A5
:10188000833E910529F138F4803E910591F0823E26
:101890009105A1F00895863E9105F9F0873E9105E6
:1018A00031F108952091110220FD3AC021FD38C088
:1018B00008958091110280FD35C032C080911102DF
:1018C00082FF32C08091110284FD30C083EE39C0A6
:1018D0008091110282FD28C0F5CF8091110283FF13
:1018E00027C08091110284FD21C087EE2AC080911B
:1018F000110283FD1DC0F5CF8091110285FD1AC034
:101900001BC08091110285FD17C014C08091110287
:1019100086FD14C015C08091110286FD11C00EC055
:1019200080EE0FC089E30DC082EE0BC080E009C0DD
:1019300086EE07C089E205C085E303C08AE201C0E4
:1019400081E390E008959091110292FF0DC0282F3D
:101950002871283019F4877F846006C0282F2471ED
:10196000243011F48B7F886093FF0DC0282F2871DD
:10197000283119F4877E846106C0282F2471243110
:1019800011F48B7E886194FD877E089508950C94F0
:10199000C60C08950C94C90CA3E1B1E041E050E0FD
:1019A0002DE02A0F8D91E82FE295EF70F0E031A144
:1019B0008F70BA0102C0660F771F8A95E2F7CB01DC
:1019C000962F9095932391A392A1892B82A32A13FA
:1019D000E9CFA0E2B1E041E050E025E02A0F8D918F
:1019E000E82FE295EF70F0E031A18F70BA0102C0EC
:1019F000660F771F8A95E2F7CB01962F9095932378
:101A000091A392A1892B82A32A13E9CFE1E5F1E00A
:101A1000A7E4B1E0119211921D921D9271E0EB3595
:101A2000F707C1F785E00E94020E0C9492083F92DE
:101A30004F925F926F927F928F929F92AF92BF92DE
:101A4000CF92DF92EF92FF920F931F93CF93DF938A
:101A500003E111E040E050E020E0EE24E394F12CBB
:101A6000E80189918E01E82FE295EF70F0E031A155
:101A70008F70B70102C0660F771F8A95E2F7CB011E
:101A8000362B31A362A1382E3094632162A370EA11
:101A90007A95F1F76701042E02C0CC0CDD1C0A9484
:101AA000E2F736016094709490E2A92E91E0B92E8D
:101AB000A1E5B1E0512C4D016D917C911197E501AB
:101AC00049905E01C42DC295CF70D0E0C8A1D0E08E
:101AD000342D3F7002C0D595C7953A95E2F73C2F5B
:101AE000EB0130FD03C0CC29DD2902C0C621D7217E
:101AF0001196DC93CE931296E40188809980681544
:101B0000790511F055245394D1E0AB35BD0799F612
:101B100091A1332D392331A392A1892B82A32529A9
:101B20004F5F5F4F4D30510509F09ACF45E067E4B4
:101B300071E081E591E00E94030E0E949C0881E023
:101B4000DF91CF911F910F91FF90EF90DF90CF9099
:101B5000BF90AF909F908F907F906F905F904F90CD
:101B60003F900895E82FF0E0EE0FFF1FE95BFE4F76
:101B7000808191810895CF92DF92EF92FF920F932F
:101B80001F93CF93DF9387E794E00E94EA0787E4EF
:101B9000E82E81E0F82EC0E0D0E092E7C92E94E074
:101BA000D92E09E614E0DF93CF93DF92CF920E9403
:101BB00083088FE694E00E94EA07F70181919191F2
:101BC0007F010E94E91B9F938F931F930F930E94A5
:101BD000830887E694E00E94EA0721968DB79EB7B6
:101BE00008960FB6F8949EBF0FBE8DBFC530D105C5
:101BF000D1F6DF91CF911F910F91FF90EF90DF9081
:101C0000CF9008950895FF920F931F93CF93DF9382
:101C1000F82E092F162FD72FC42F222349F081E049
:101C200080935D010E94431D90935C0180935B0152
:101C300080915D018823D9F080915B0190915C01D6
:101C40000E945B1D069798F0EF2DF02FA12FBD2F5E
:101C500080E090E04C2F50E08417950734F42191F8
:101C600031912D933D930196F7CF10925D01DF9155
:101C7000CF911F910F91FF900895CF93DF93813003
:101C800020E8920768F0FB012281222349F0EC0151
:101C90000E94930ECE019F770E94DF0E0E94C80E15
:101CA00081E0DF91CF9108958CE090E00E94902D2B
:101CB00090E0A0E0B0E08093070290930802A09328
:101CC0000902B0930A028091EB0180FF0EC080915F
:101CD00007021F928F938DEA94E09F938F930E9447
:101CE00083080F900F900F900F9008956091070256
:101CF0008CE090E00C949E2D809307020E94760E5B
:101D00008091EB0180FF0EC0809107021F928F939C
:101D10008EE894E09F938F930E9483080F900F901A
:101D20000F900F9008950E941B1B80935E010E94EC
:101D30002E1B80910702813071F048F08230D9F07B
:101D40008430F9F486EE0E949B1288E118C082EE7E
:101D50000E94FA1016C080EE0E94FA1081EE0E94D6
:101D6000FA1088E10E949B1281EE0E94331280EEED
:101D70000E94331206C082EE0E94FA1087E50E948C
:101D80009B128FE39CE90197F1F700C000000895D2
:101D900080910702813039F040F0823031F0843098
:101DA00051F488E206C08CE204C082EE0E94331235
:101DB00002C00E949B1280915E010C942B1B0F931A
:101DC0001F93CF93DF938C01CCE0D0E0C8010C2EA1
:101DD00002C0969587950A94E2F78F700E949E083C
:101DE0000E949B122497CC3F8FEFD80779F7DF91A1
:101DF000CF911F910F9108950F931F93CF93DF936E
:101E0000EC018B01FB018281882301F1C33EFCE5DB
:101E1000DF07B9F050F4C13EECE5DE0781F0C23EC9
:101E2000FCE5DF0799F481E00FC0C43E8CE5D807DC
:101E300051F0C53EECE5DE0749F484E005C080E0E2
:101E400003C082E001C083E00E947C0EB801CE0195
:101E5000DF91CF911F910F910C943D0E90936401EF
:101E6000809363010895E0916301F09164013097DC
:101E700021F00190F081E02D099480E00895EF9227
:101E8000FF920F931F93CF93DF93E0916301F09143
:101E900064013097B1F18C010280F381E02D099546
:101EA0008091EB0182FF2DC080FF04C085ED94E09E
:101EB0000E94EA07E80118E08FECE82E84E0F82E93
:101EC0008091EB0180FF0BC088811F928F93FF925E
:101ED000EF920E9483080F900F900F900F90115077
:101EE00021961111EDCF8091EB0180FF0AC08DEC9E
:101EF00094E0DF91CF911F910F91FF90EF900C94A0
:101F0000EA07DF91CF911F910F91FF90EF90089515
:101F1000E0916301F0916401309739F022E0DC0137
:101F20002C930480F581E02D09940895209161019E
:101F3000309162018217930771F090936201809350
:101F40006101E0916301F0916401309721F0068016
:101F5000F781E02D0994089520915F01309160018F
:101F60008217930771F09093600180935F01E09175
:101F70006301F0916401309721F00084F185E02D38
:101F80000994089585B7806885BF85B7806885BF47
:101F90000895089508950C94CA0F08950C94CD0FD8
:101FA0000E94C20F0E94C90F0C94CB0F81E00895CC
:101FB0000E943A1D0E94CC0C0E94BC1D0C94CE0FB6
:101FC000CF93C82F8091EB0182FF1EC080FF04C019
:101FD0008EEE94E00E94EA078091EB0180FF0CC036
:101FE0001F92CF9389EE94E09F938F930E94830872
:101FF0000F900F900F900F908091EB0180FF04C025
:1020000087EE94E00E94EA078C2FCF910C94AF08E2
:102010004F925F927F928F929F92AF92BF92CF9298
:10202000DF92EF92FF920F931F93CF93DF93CDB781
:10203000DEB72A970FB6F894DEBF0FBECDBF0E9461
:10204000170D0E94D60F811111C08FEF89838A83EB
:102050001B820E94431D8160782F9D838C83498160
:102060005A816B818D810E94C61057C096E6C92E99
:1020700091E0D92E00E010E0AA24A394B12C702E98
:10208000802F0E94B20D4C01F601419051906F01DA
:10209000482659264114510431F40F5F1F4F053073
:1020A000110569F7D2CF8091EB0181FD0E94BB0D34
:1020B00020E030E07501022E02C0EE0CFF1C0A94F5
:1020C000E2F7C70184219521892B09F12E837F82B4
:1020D0008E209F2091E0892809F490E098870E9443
:1020E000431D8160782F9A8789874E815F8168853B
:1020F0008A850E94C610000F111FF801EA59FE4F91
:1021000080819181E826F926F182E08206C02F5F66
:102110003F4F2D30310571F6C0CF0E94D11F109175
:1021200065010E94330F1817D9F00E94330F809376
:1021300065012A960FB6F894DEBF0FBECDBFDF91C2
:10214000CF911F910F91FF90EF90DF90CF90BF90B4
:10215000AF909F908F907F905F904F900C94E00F86
:102160002A960FB6F894DEBF0FBECDBFDF91CF9198
:102170001F910F91FF90EF90DF90CF90BF90AF90A5
:102180009F908F907F905F904F900895CF93DF93B3
:10219000CDB7DEB72B970FB6F894DEBF0FBECDBF1D
:1021A0004F83588769877A878B87DE01119686E08F
:1021B000FD0111928A95E9F785E0FE0137960190BD
:1021C0000D928A95E1F749815A816B817C818D81DD
:1021D0009E810E9410182B960FB6F894DEBF0FBE9A
:1021E000CDBFDF91CF910895FC01808191810E9444
:1021F000DC1A0895CF93DF931F92CDB7DEB7882303
:1022000009F42DC1682F8238C1F40E94330F81FD7B
:1022100026C169E380910001909101010E94B11CE7
:102220000E946A1B2FEF81EE94E021508040904085
:10223000E1F700C0000069E319C0833811F50E947E
:10224000330F80FD0CC163E5809100019091010185
:102250000E94B11C0E946A1B2FEF81EE94E0215076
:1022600080409040E1F700C0000063E580910001EC
:10227000909101010E94B31C0F90DF91CF910C94BB
:102280006A1B8438C1F40E94330F82FDE8C067E402
:1022900080910001909101010E94B11C0E946A1B73
:1022A0002FEF81EE94E0215080409040E1F700C094
:1022B000000067E4DBCF8CEF860F813A70F4862F45
:1022C00069830E94312469818111C9C08091000114
:1022D000909101010E94B11CCFCF80E2860F88301F
:1022E00048F4677081E001C0880F6A95EAF70E94A0
:1022F0001E1BC2CF8BE5860F833088F4653A29F028
:10230000663A31F083E890E005C081E890E002C0D1
:1023100082E890E00F90DF91CF910C94960F88E5C2
:10232000860F873108F091C0683A09F445C0693AD0
:1023300009F445C06A3A09F445C06B3A09F445C04E
:102340006C3A09F445C06B3B09F445C06C3B09F499
:1023500045C06D3A09F445C0603B09F445C06E3A8A
:1023600009F445C06F3A09F445C0613B09F445C022
:10237000623B09F445C0633B09F445C0643B09F482
:1023800045C0653B09F445C0663B09F445C0673B61
:1023900009F445C0683B09F445C0693B09F445C0F0
:1023A0006D3B09F445C06E3B09F445C06A3B09F436
:1023B00045C080E090E044C082EE90E041C089EEEC
:1023C00090E03EC08AEE90E03BC085EB90E038C0E4
:1023D00086EB90E035C083EB90E032C084EB90E078
:1023E0002FC087EB90E02CC08CEC90E029C08DECE6
:1023F00090E026C083E891E023C08AE891E020C005
:1024000082E991E01DC084E991E01AC081E292E086
:1024100017C083E292E014C084E292E011C085E22A
:1024200092E00EC086E292E00BC087E292E008C024
:102430008FE690E005C080E790E002C08AE292E07B
:102440000F90DF91CF910C94AC0F603F40F0862F3E
:102450000E94571E0F90DF91CF910C94441F0F9054
:10246000DF91CF910895882309F464C0823879F40C
:102470000E94330F81FF5EC069E38091000190915B
:1024800001010E94B11C0E946A1B69E310C08338DD
:10249000B1F40E94330F80FF4DC063E580910001CD
:1024A000909101010E94B11C0E946A1B63E580911A
:1024B0000001909101010E94B31C0C946A1B8438A6
:1024C00079F40E94330F82FF35C067E480910001E8
:1024D000909101010E94B11C0E946A1B67E4E7CF42
:1024E0009CEF980F913A10F4682FE1CF90E2980F8B
:1024F000983050F4877091E001C0990F8A95EAF7FF
:10250000892F0E94241BD9CF9BE5980F933020F48C
:1025100080E090E00C94960F98E5980F973120F4A6
:1025200080E090E00C94AC0F803F20F00E94BF1E32
:102530000C94441F0895CF93C82F0E94FA108C2F3B
:10254000CF910C943312882321F00E941E1B0C940F
:102550006A1B0895882321F00E94241B0C946A1B97
:1025600008954F925F926F927F92BF92CF92DF92C7
:10257000EF92FF920F931F93CF93DF937C01D62F9F
:10258000C72FFC01058102950F70128111110E9465
:102590003E1B0E94141B882379F0112369F080E20E
:1025A0008D0F883048F082E00E94B51B0E94141BFA
:1025B00091E0B82EB92601C0B12CCC2EC2948FE088
:1025C000C822D12CF601E859FF4F0C94762D8C2FA0
:1025D000807FCF70882311F0C295C07F112399F0BE
:1025E000CC2309F4CFC180E28D0F883010F0D111D7
:1025F00004C08C2F0E941E1B03C08C2F0E94311B15
:102600000E946A1BBFC18D2F0E943312CC2309F494
:10261000DEC180E28D0F883010F0D11104C08C2F04
:102620000E94241B03C08C2F0E94371B0E946A1B30
:10263000CEC18C2F807FCF70803211F0C295C07FC9
:10264000DD2319F0D130C9F022C0112371F000232D
:1026500041F0013031F40E94511B8C2B0E94571B1A
:10266000B6C10E94511B8C2B46C1002319F00130CA
:1026700009F4ADC10E94601B18C0112321F006307F
:1026800008F0A5C10EC0053008F0A1C10EC011238D
:1026900051F0002331F0F701858180FF73C18F7005
:1026A00085838C2F28C101117EC18C2F2AC18C2FCC
:1026B00086958695837090E0009719F0019761F0F8
:1026C00086C1112321F08D2F9C2F937002C080E0D2
:1026D00090E00E94960F8BC1112321F08D2F9C2F2B
:1026E000937002C080E090E00E94AC0F80C1112383
:1026F000F9F0D53F51F0D63F71F0D43FA9F4809165
:102700000B0290910C0281600BC080910B029091A2
:102710000C02826005C080910B0290910C028460D3
:1027200090930C0280930B028D2F0E94571E1EC0A7
:10273000D53F51F0D63F71F0D43FA9F480910B0200
:1027400090910C028E7F0BC080910B0290910C0235
:102750008D7F05C080910B0290910C028B7F90932E
:102760000C0280930B028D2F0E94BF1E0E94441FFB
:102770003EC18C2F837009F050C0111134C18D2FD0
:10278000829586958770880F880F9D2F9F70492EA0
:10279000512C612C712C082E04C0440C551C661C55
:1027A000771C0A94D2F7D4FF14C00FE010E020E0A9
:1027B00030E0B901A80104C0440F551F661F771F00
:1027C0008A95D2F7CB01BA01609570958095909566
:1027D00003C060E070E0CB01C695C695C370D0E041
:1027E000C230D10561F0C330D10581F0642975296B
:1027F00086299729219771F00E945519F4C0642900
:102800007529862997290E946719EDC00E945519DC
:10281000C301B2010E944319E6C0112319F08C2FA5
:10282000817001C08695882309F4DDC08D2F8295C3
:1028300086958770880F880F9D2F9F70492E512C89
:10284000612C712C082E04C0440C551C661C771C8E
:102850000A94D2F7D4FF14C00FE010E020E030E07B
:10286000B901A80104C0440F551F661F771F8A9540
:10287000D2F7CB01BA01609570958095909503C011
:1028800060E070E0CB01C695C695C3704C2F50E058
:102890004230510569F04330510589F064297529AA
:1028A000862997294130510571F00E941B1A9BC05F
:1028B00064297529862997290E942D1A94C00E949F
:1028C0001B1AC301B2010E94091A8DC08D2F90E01E
:1028D000FC01E05EF109E531F10508F04FC0E85870
:1028E000FF4F0C94762DDF708C2F8F71112331F0F8
:1028F0000E94A2198D2F0E94A31269C00E94C319C1
:102900008D2F0E94AA1263C0112341F0053008F0F8
:102910005EC08C2F8F710E94E81959C0063008F0F4
:1029200056C0F7CF112339F08C2F8F710E94A21956
:102930004EC01123C9F38C2F8F710E94C31947C059
:10294000112329F08C2F8F710E948D1940C00E9495
:1029500088193DC0112349F0CF718C2F0E94A21914
:1029600063E08C2F0E94A01B32C081E00E94B51B47
:10297000023068F182E00E94B51B29C0112331F0BA
:10298000002391F28D2F0E94FA1021C0002399F2AA
:10299000D93349F45FEF67EE73E051506040704007
:1029A000E1F700C000008D2F0E94331210C04C2FA1
:1029B0004F706D2FC7010E94510A0E94B41817C0B2
:1029C0004C2F4F706D2FC7010E94540A10C088E031
:1029D000C816D10441F05CF0EAE0CE1AD108F2E06A
:1029E000CF16D10420F40E94330F0E94AF08BB2001
:1029F000F1F00E94101B80FD1AC0F70112820E94A4
:102A00000A1B0E94A219C7010E9425150E940A1BD9
:102A1000DF91CF911F910F91FF90EF90DF90CF90BA
:102A2000BF907F906F905F904F900C94C319DF918F
:102A3000CF911F910F91FF90EF90DF90CF90BF90BB
:102A40007F906F905F904F9008950F931F93CF9357
:102A5000DF93EC01888199812B813C81232BB9F094
:102A60009F3F11F48F3F99F0CE010E94C708882341
:102A700071F0688179818A810E94E71A8C010E9435
:102A80003F1A0E944019B801CE010E94B112DF9195
:102A9000CF911F910F9108950E943E1B0E944E1BE3
:102AA0000E946A1B0E945F200E94441F80E090E009
:102AB0000E94960F80E090E00C94AC0F8091000192
:102AC000909101010E94B51C0C944C150E942E1B84
:102AD0000C945E15E92FE295EF70F0E03297EE303E
:102AE000F105B0F4E357FF4F0C94762D803F91F041
:102AF00018F4803E68F40EC0843F51F40BC0803E51
:102B000048F0813F29F406C093FB882780F9089597
:102B100080E0089581E008950E94DC1A0E946A1501
:102B20000895CF93DF9300D000D01F92CDB7DEB7CA
:102B30000F900F900F900F900F90DF91CF9108950D
:102B4000CF93DF9300D000D000D0CDB7DEB726966C
:102B50000FB6F894DEBF0FBECDBFDF91CF910895C1
:102B60001F93CF93DF93C091710116E080917201A2
:102B7000C81799F0D0E01C9FF0011D9FF00D1124A3
:102B8000ED58FE4F4081518162817381848195812E
:102B90000E94A0152196C770E9CFDF91CF911F91B8
:102BA00008954091A3015091A4016091A5017091F5
:102BB000A6018091A7019091A8010C94A015809185
:102BC000A80182958F7009F054C08091A5018823D7
:102BD00009F44FC080917101A09172016091A3012D
:102BE0007091A4014091A6015091A701B6E08A1707
:102BF00009F43FC090E041155105C1F17F3F11F448
:102C00006F3FA1F1B89FF001B99FF00D1124ED586D
:102C1000FE4F218172132AC02081621327C02281B6
:102C2000211124C0238134812417350710F4215049
:102C30003109241B350B283C3105C0F42091A80133
:102C40002F7020612093A80126E0289FF001299F82
:102C5000F00D1124E858FE4F80818F7080618083D1
:102C600083EA91E00E9425150C94B01501968770B7
:102C7000BECF0895CF92DF92EF92FF920F931F93F2
:102C8000CF93DF93CDB7DEB762970FB6F894DEBF70
:102C90000FBECDBF8C0185E0F801DE011D960190CD
:102CA0000D928A95E1F7D8014C9111965C9111979C
:102CB00012966C9112971396CD90DC9014973091E8
:102CC000A3017091A4018091A6019091A7010097A2
:102CD00009F46BC17F3F19F43F3F09F466C1E090EE
:102CE000A501EE2009F4C0C02091A801C816D9069C
:102CF00028F0F601E81BF90BCF0104C080959095F0
:102D00008C0D9D1DFF24F394883C910578F0F12CE7
:102D1000207F09F0C6C07C2DD98AC88A89890E9483
:102D2000911583EA91E00E942515B1C0822F807F22
:102D300009F046C0751314C0341312C0611110C0DD
:102D40002F7020612093A8010E94D11583EA91E0A1
:102D50000E9425158091A801D80115968C932EC04C
:102D6000CD2819F15F3F11F44F3FF9F0F62E6111B4
:102D70001CC0809171012091720136E0821709F424
:102D80005AC090E0389FF001399FF00D1124ED58A2
:102D9000FE4F7181571306C07081471303C07281C3
:102DA000711103C001968770E9CFF62E662309F4EE
:102DB00027C18091A80181608093A801F12C20C1D6
:102DC000751308C0341306C0611104C08091A801B6
:102DD000D801C3C04D875E878D859E856A8B0E9412
:102DE0008C156A898823E1F16623D1F12091A8012D
:102DF000822F82958F7090E0029774F08091A301EA
:102E00009091A40198878F831986DB86CA862C87C8
:102E1000CE0107960E94251586E0F801A3EAB1E0ED
:102E200001900D928A95E1F70E94DF150E94D1155D
:102E3000FF24F394E5C04D875E878D859E850E94B3
:102E4000DC1A292F22952F7030E0223031050CF04A
:102E5000CBC09F7009F0C5C0805E883008F4D0C038
:102E6000C8010E942515E4CFC816D90608F453C03E
:102E7000F601E81BF90BCF01883C910508F450C01E
:102E8000F12C7C2DD98AC88A89890E949115E3EAA0
:102E9000F1E086E0DF011D928A95E9F70E94D115E5
:102EA000AFC0751314C0341312C0611110C08091EB
:102EB000A801F8018583C8010E94251586E0E3EA90
:102EC000F1E0DF011D928A95E9F7FE2C99C04D874C
:102ED0005E878D859E856A8B0E948C156A89882302
:102EE00009F4BECF662309F4BBCF2091A801822F3D
:102EF00082958F7090E002970CF48ECF8091A301A1
:102F00009091A4019A8389831B82DD82CC822E83D7
:102F1000CE0101967FCF809590958C0D9D1DACCFF5
:102F2000F62E662309F49CCF75132EC034132CC0E3
:102F30002091A80120FD1FC0822F82958F70D9F0AB
:102F4000D80115962C9315978F3049F08F5F982FE5
:102F50009295907F822F8F70892B15968C93C80144
:102F60000E94251586E0F801A3EAB1E001900D92D8
:102F70008A95E1F793CF86E0F801A3EAB1E00190EA
:102F80000D928A95E1F73CC04D875E878D859E85C1
:102F90000E948C15811140CF8091A801816080939F
:102FA000A801C8010E9425152BC0662309F458CF3B
:102FB0004D875E878D859E850E948C15F82E88230F
:102FC00009F44ECF86E0F801A3EAB1E001900D923A
:102FD0008A95E1F783EA91E00E94F4100E94DF15E0
:102FE0005DCF811139CF0CC0243031050CF038CFC2
:102FF0009F7009F431CFF8019581907F09F02CCFB3
:103000008F2D62960FB6F894DEBF0FBECDBFDF9155
:10301000CF911F910F91FF90EF90DF90CF90089587
:103020001F93CF93DF93CDB7DEB72C970FB6F894ED
:10303000DEBF0FBECDBF4F83588769877A878B87E6
:103040009C87CE0107960E943A16882369F08F81EB
:1030500098852A853B85232BF1F19F3F09F063C0BA
:103060008F3F09F060C037C086E0FE013796DE0171
:10307000119601900D928A95E1F76F817885EA8526
:10308000FB85309741F17F3F11F46F3F21F1209193
:10309000720130E0C9010196877099274091710152
:1030A00050E08417950709F447C069837A83FD834C
:1030B000EC8396E0929FD001939FB00D1124AD5800
:1030C000BE4FFE01319601900D929A95E1F78093E3
:1030D00072010E94B01516E0809171019091720109
:1030E0008917C1F1189FC00111248D589E4F0E946D
:1030F0003A16882379F1E09171011E9FF0011124A5
:10310000ED58FE4F408151816281738184819581A8
:103110000E94A0158091710190E001968770992717
:1031200080937101D9CF4F81588569857A858B85C8
:103130009C850E94A015CFCF0E9466151092720147
:1031400010927101E3EAF1E086E0DF011D928A95B9
:10315000E9F7C1CF2C960FB6F894DEBF0FBECDBFF6
:10316000DF91CF911F910895EF92FF920F931F93DC
:10317000CF93DF938C01892B09F46CC0F12CEE24E2
:10318000E394E8012196F8018491843740F4843077
:1031900008F051C0813081F0823019F15BC0853771
:1031A00009F444C0A8F19CE7980F903708F052C08A
:1031B0008F770E94331241C00E5F1F4FFE01C491F2
:1031C00080E28C0F883048F4C7708E2D01C0880FC4
:1031D000CA95EAF70E94411B14C08C2F0E94FA1076
:1031E0002DC00E5F1F4FFE01C49180E28C0F88300E
:1031F00058F4C7708E2D01C0880FCA95EAF70E9457
:10320000471B0E946A1B1AC08C2F0E94331216C0E3
:103210000E5F1F4FFE01C491CC2381F08FE99FE028
:103220000197F1F700C00000C150F6CF0E5F1F4FAD
:10323000FE01F49003C00E94FA108E018F2D8823A6
:1032400009F49FCFEFE9FFE03197F1F700C00000EC
:103250008150F5CFDF91CF911F910F91FF90EF90AB
:10326000089508950C9431190E9432196093DA017F
:103270007093DB018093DC019093DD010C944C157D
:1032800008950C9434190F931F930091DA01109153
:10329000DB012091DC013091DD01602B712B822B51
:1032A000932B1F910F910C9434190F931F9300913E
:1032B000DA011091DB012091DC013091DD01602306
:1032C0007123822393231F910F910C9434190F9330
:1032D0001F930091DA011091DB012091DC01309104
:1032E000DD0160277127822793271F910F910C948E
:1032F000341908950C9479190E947A196093D601B3
:103300007093D7018093D8019093D9010C944C15F8
:1033100060E070E0CB010C947C190F931F9341E0A7
:1033200050E060E070E08A019B0104C0000F111FB3
:10333000221F331F8A95D2F7C901B8011F910F913F
:103340000C947C190F931F9341E050E060E070E013
:1033500004C0440F551F661F771F8A95D2F78091CE
:10336000D6019091D701A091D801B091D9018A01DD
:103370009B01082B192B2A2B3B2BC901B8011F914C
:103380000F910C947C190F931F9341E050E060E083
:1033900070E004C0440F551F661F771F8A95D2F74F
:1033A00040955095609570958091D6019091D70188
:1033B000A091D801B091D9018A019B01082319235A
:1033C0002A233B23C901B8011F910F910C947C194A
:1033D0000F931F9341E050E060E070E004C0440FA1
:1033E000551F661F771F8A95D2F78091D60190915D
:1033F000D701A091D801B091D9018A019B0108277A
:1034000019272A273B27C901B8011F910F910C9456
:103410007C190F931F930091D6011091D701209131
:10342000D8013091D901602B712B822B932B1F91E6
:103430000F910C947C190F931F930091D60110915A
:10344000D7012091D8013091D901602371238223C3
:1034500093231F910F910C947C190F931F9300914C
:10346000D6011091D7012091D8013091D901602760
:103470007127822793271F910F910C947C1908952F
:103480002DE0929F800D1124A82FA695A695A695B4
:10349000877051E001C0550F8A95EAF785E0A89F33
:1034A000D001112420E030E070E0F901EA0FFB1FA9
:1034B000E755FE4F4081CB01022E02C096958795BD
:1034C0000A94E2F7817099278195842785238427C0
:1034D00080832F5F3F4F2530310539F708952DE068
:1034E000929F800D1124682F669566956695982F9A
:1034F000977085E0689FB001112440E050E080E0C3
:10350000FA01E60FF71FE755FE4F208130E0092E44
:1035100002C0369527950A94E2F721703327042ECE
:1035200001C0220F0A94EAF7822B4F5F5F4F4530AC
:10353000510531F70895BF92CF92DF92EF92FF923B
:103540000F931F93CF93DF938C01C090DA01D0903B
:10355000DB01E090DC01F090DD018091D6019091DB
:10356000D701A091D801B091D901C82AD92AEA2A55
:10357000FB2ACFE1D0E0D701C6010C2E04C0B695DE
:10358000A795979587950A94D2F780FF07C0BC2E20
:10359000B8018C2F0E946F0A019719F4219758F7F0
:1035A000B12C8B2DDF91CF911F910F91FF90EF9058
:1035B000DF90CF90BF900895CF93DF93EC010E94EE
:1035C0009B1ABE010E946F0ADF91CF9108951F934D
:1035D000CF93DF93EB0190917001992321F0CB0100
:1035E0000E94DC1A13C0882349F0CB010E949B1A69
:1035F000182F682FCE010E94401A04C0CB010E94F0
:103600006F1A182FBE01812F0E946F0ADF91CF9190
:103610001F9108958091DE01859585958595089582
:103620008091DE01877008959091DE01977081E0AE
:1036300009F480E008958091EA0108959091EA01EB
:10364000892B8093EA01089580959091EA0189235E
:103650008093EA0108958093EA0108951092EA01A7
:1036600008959091E901892B8093E901089580954F
:103670009091E90189238093E90108951092E9016D
:1036800008959091E801892B8093E8010895809531
:103690009091E80189238093E80108951092E80150
:1036A00008958091DF01089508950C94541B909122
:1036B000DF01981721F08093DF010C94551B0895CA
:1036C0008091DF01882329F01092DF0180E00C94C3
:1036D000551B0895E0910001F09101018091EA01EC
:1036E0008083E0910001F091010190818091E901D6
:1036F000892B8083E0910001F091010190818091FC
:10370000E801892B80838091DF01882381F0E0919B
:103710000001F09101019081892B8083809100014B
:10372000909101010E947F1C81110E94601B809179
:103730000001909101010C943F0F08950C949D1B82
:1037400098E0899F90011124262B2093DE010E948E
:10375000A2198091DE018595859585950C949E1B17
:103760001092DE0180E00C949E1B2091DE0180957A
:1037700082238093DE01982F977079F430E0482FF0
:10378000082E000C550B2417350739F085958595C3
:1037900085950E94C3190C94B01B089590933F0126
:1037A00080933E0108958295982F9C7C392F369501
:1037B0003695282F237344E0249FC0011124932FB2
:1037C000982B292F2A7A2695892F8575880F822B89
:1037D00008951F93CF93DF931F92CDB7DEB79983E0
:1037E0000E94D31B182F9981892F0E94D31B212F50
:1037F00030E0322F2227A901482BCA010F90DF9118
:10380000CF911F91089580E090E00E94982D21E0D3
:103810008D3E9E4F09F020E0822F089582E090E0D7
:103820000C94902D83E090E00C94902D84E090E037
:103830000C94902D682F84E090E00C949E2DAB01A9
:10384000BC018FE090E00C94B02DAB01BC0183E192
:1038500090E00C94B02D60E070E0CB010C94251C3E
:1038600060E070E0CB010E941F1C0C942B1C6DEEDD
:103870007EEF80E090E00E94BC2D60E082E090E06E
:103880000E949E2D60E083E090E00E949E2D1092A9
:10389000DA011092DB011092DC011092DD0160E090
:1038A00084E090E00E949E2D60E085E090E00E9420
:1038B0009E2D60E086E090E00E949E2D6FEF87E0F5
:1038C00090E00E949E2D40E050E0BA0188E090E038
:1038D0000E94B02D60E08DE090E00E949E2D40E0BF
:1038E00050E0BA0188E190E00E94B02D60E087E1ED
:1038F00090E00E949E2D0C94301C0C94371CFC010F
:10390000329697E080E0915029F021912223D9F35B
:103910008F5FF9CF08959C01FC0132969FEF80E004
:103920004191461789F09F3F19F4411101C0982F2A
:103930008F5F8630A9F79F3F39F0F901E90FF11D3C
:1039400097FDFA95628308950895FC0132960896D2
:103950002081261301C010823196E817F907C1F7BC
:1039600008950C948B1C0C94A51C029626E0FC0177
:1039700011922A95E9F7089508950C94BC1C0E94B1
:10398000BD1C80911702843049F11092EC0120E4B3
:1039900088E190E00FB6F894A895809360000FBE80
:1039A0002093600080E00E94AF080E94BD1C83B796
:1039B000817F846083BF83B7816083BF789488955B
:1039C00083B78E7F83BF0FB6F894A895809160006F
:1039D000886180936000109260000FBE0895089582
:1039E0000895CF930E94EF1C0E94170D0E94F01CB7
:1039F000C0E08C2F0E94B20D892B29F4CF5FC53017
:103A0000C1F780E001C081E0CF91089508950C9442
:103A1000061D0E9466150E94330F0E94AF080C9489
:103A2000071D1F920F920FB60F9211248F939F9331
:103A3000AF93BF938091EC01811113C080910D026F
:103A400090910E02A0910F02B09110024196A11D1B
:103A5000B11D80930D0290930E02A0930F02B093BC
:103A60001002BF91AF919F918F910F900FBE0F9059
:103A70001F90189582E084BD93E095BD9AEF97BDA5
:103A800080936E0008952FB7F89480910D02909165
:103A90000E02A0910F02B09110022FBF08952FB710
:103AA000F89460910D0270910E0280910F02909136
:103AB00010022FBF0895CF92DF92EF92FF920F93E3
:103AC0001F932FB7F89440910D0250910E02609110
:103AD0000F02709110022FBF6A017B01EE24FF24B8
:103AE0008C0120E030E0C016D106E206F30610F4A7
:103AF000415051099A01281B390BC9011F910F919F
:103B0000FF90EF90DF90CF90089578941F920F92DE
:103B10000FB60F9211248F939F93AF93BF93809111
:103B20000D0290910E02A0910F02B0911002019629
:103B3000A11DB11D80930D0290930E02A0930F0260
:103B4000B0931002BF91AF919F918F910F900FBED4
:103B50000F901F90189587E797E79093010880933F
:103B600000089AE088E10FB6F894A8958093600069
:103B70000FBE90936000FFCF0E94031C811102C012
:103B80000E947D1C0E940E1C8093EB010E94161C5B
:103B900090E090931202809311020E94121C682FF1
:103BA00070E080E090E00C9441198091F00180FF7A
:103BB0000BC06091050185E0689FB00111247595E7
:103BC0006795759567952BC081FF09C060910501C8
:103BD00085E0689FB00111247595679520C082FF2C
:103BE00007C06091050185E0689FB001112417C0EE
:103BF0009091EF019923D1F060910401961788F715
:103C00002091050185E0289F90011124929FA00139
:103C1000939F500D112470E0CA010E94622D6038FC
:103C2000710540F46115710539F002C065E070E07E
:103C3000862F08958FE7089581E008958091F0011F
:103C400080FF08C06091030170E0759567957595D8
:103C5000679521C081FF06C06091030170E07595F2
:103C6000679519C082FF04C06091030170E010C025
:103C70009091EF019923C1F0609102019617A0F78E
:103C800080910301899FC001112470E00E94622D80
:103C90006038710528F46115710521F0862F0895AB
:103CA0008FE7089581E0089561E070E0F4CF803FF0
:103CB00021F40E94D51D819504C0813F29F40E9402
:103CC000D51D8093F4010895823F21F40E94D51DF3
:103CD000819504C0833F29F40E94D51D8093F30190
:103CE0000895893F19F40E941E1E05C08A3F31F4D1
:103CF0000E941E1E81958093F50108958B3F21F44B
:103D00000E941E1E819504C08C3F29F40E941E1E35
:103D10008093F6010895843F21F48091F20181603F
:103D200017C0853F21F48091F201826011C0863F67
:103D300021F48091F20184600BC0873F21F48091CF
:103D4000F201886005C0883F31F48091F201806102
:103D50008093F20108958D3F21F48091F0018160FC
:103D60000BC08E3F21F48091F001826005C08F3F2F
:103D700029F48091F00184608093F0010895803FE0
:103D800039F48091F40187FF6CC01092F40169C08E
:103D9000813F29F48091F4011816BCF362C0909120
:103DA000F301823F29F497FF5CC01092F30159C0E0
:103DB000833F19F41916CCF354C0893F41F4809124
:103DC000F50118160CF04DC01092F5014AC08A3F5B
:103DD00029F48091F50187FF44C0F6CF8B3F39F479
:103DE0008091F60187FF3DC01092F6013AC08C3FEA
:103DF00029F48091F6011816BCF333C0843F21F4F6
:103E00008091F2018E7F17C0853F21F48091F201ED
:103E10008D7F11C0863F21F48091F2018B7F0BC012
:103E2000873F21F48091F201877F05C0883F31F4FC
:103E30008091F2018F7E8093F20113C08D3F21F4B7
:103E40008091F0018E7F0BC08E3F21F48091F001B4
:103E50008D7F05C08F3F29F48091F0018B7F809387
:103E6000F0018091F30181110EC08091F401811164
:103E70000AC08091F501811106C08091F60181117F
:103E800002C01092EF0108958091EB0183FF7EC084
:103E900088E295E00E94EA078091F2011F928F93D9
:103EA00083E295E09F938F930E94830881E295E0DF
:103EB0000E94EA078091F301282F082E000C330B93
:103EC0003F938F938EE195E09F938F930E94830899
:103ED0008CE195E00E94EA078091F401282F082EDA
:103EE000000C330B3F938F9389E195E09F938F9361
:103EF0000E94830887E195E00E94EA078091F5011E
:103F0000282F082E000C330B3F938F9384E195E00C
:103F10009F938F930E94830882E195E00E94EA07B5
:103F20008091F601282F082E000C330B3F938F93BE
:103F30008FE095E09F938F930E9483088CE095E03B
:103F40000E94EA078091EF011F928F9389E095E02C
:103F50009F938F930E94830887E095E00E94EA0771
:103F60008091F0011F928F9384E095E09F938F934F
:103F70000E94830881E095E00E94EA078DB79EB712
:103F80004C960FB6F8949EBF0FBE8DBF81EF91E0A7
:103F90000E94880F0E94431D9093EE018093ED01D3
:103FA00008951F93CF93DF938091ED019091EE01DF
:103FB0000E945B1DAC019091EF01992321F02091AB
:103FC000060130E006C0209107018AE0289F900199
:103FD00011244217530708F46EC08091F301C09179
:103FE000F401D091F5011091F601811107C0C111C2
:103FF0005EC0D1115CC011115AC05DC09F3F19F065
:104000009F5F9093EF01181624F40E94D51D8093B2
:10401000F3018091F30187FF05C00E94D51D8195B2
:104020008093F3011C1624F40E94D51D8093F401A3
:104030008091F40187FF05C00E94D51D8195809372
:10404000F4014091F301442379F03091F4013323DA
:1040500059F025EB4203A00111245093F3013203E0
:10406000C00111249093F4011D1624F40E941E1E19
:104070008093F5018091F50187FF05C00E941E1E07
:1040800081958093F501111624F40E941E1E8093E1
:10409000F6018091F60187FF05C00E941E1E8195E2
:1040A0008093F601DF91CF911F910C94441F9F3FA5
:1040B00009F0A6CFAECFDF91CF911F910895E1EF28
:1040C000F1E086E0DF011D928A95E9F71092EF0199
:1040D0001092F00108958BE497E00E94EA071F9286
:1040E00081E08F931F9285E08F938DEF96E09F93F1
:1040F0008F930E9483080F900F900F900F900F9056
:104100000F9008958330E9F128F4813061F0823016
:1041100009F10895853009F462C008F449C0863079
:1041200009F474C0089580910701262F30E0280F0C
:10413000311D2F3F310524F4680F6093070103C040
:104140008FEF80930701809107011F928F9386E381
:1041500096E072C080910601262F30E0280F311DB5
:104160002F3F310524F4680F6093060103C08FEFE1
:1041700080930601809106011F928F9384E296E05E
:104180005BC080910501262F30E0280F311D2F3FA5
:10419000310524F4680F6093050103C08FEF80930D
:1041A0000501809105011F928F9381E196E044C043
:1041B00080910401262F30E0280F311D2F3F31055B
:1041C00024F4680F6093040103C08FEF809304010F
:1041D000809104011F928F938CEF95E02DC0809108
:1041E0000301262F30E0280F311D2F3F310524F425
:1041F000680F6093030103C08FEF809303018091E8
:1042000003011F928F9383EE95E016C08091020107
:10421000262F30E0280F311D2F3F310524F4680F81
:104220006093020103C08FEF80930201809102012D
:104230001F928F9388EC95E09F938F930E94830841
:104240000F900F900F900F900895833081F128F414
:10425000813059F08230D1F00895853009F449C099
:10426000B8F1863009F456C00895809107016817A7
:1042700020F4861B8093070102C0109207018091F1
:1042800007011F928F9389EB95E054C0809106013E
:10429000681720F4861B8093060102C01092060165
:1042A000809106011F928F9387EA95E043C0809129
:1042B0000501681720F4861B8093050102C0109247
:1042C0000501809105011F928F9384E995E032C02A
:1042D00080910401681720F4861B8093040102C0BA
:1042E00010920401809104011F928F938FE795E053
:1042F00021C080910301681720F4861B809303017D
:1043000002C010920301809103011F928F9386E6F1
:1043100095E010C080910201681720F4861B8093FD
:10432000020102C010920201809102011F928F933C
:104330008BE495E09F938F930E9483080F900F90DA
:104340000F900F900895CF93C82F1F928F9380E501
:1043500098E09F938F930E94830881E090E0A0E013
:10436000B0E0BC01CD0104C0660F771F881F991F04
:10437000CA95D2F70E9441190F900F900F900F909D
:10438000CF910C946615CF938B3109F4D1C108F00D
:1043900067C18B3009F48AC108F03DC1863009F449
:1043A00088C120F4853009F496C144C2873009F4ED
:1043B000A4C1883009F03EC284E79DE00E94EA076C
:1043C00085EC9CE00E94EA070E94121C1F928F93CA
:1043D00082EC9CE09F938F930E94830880EC9CE08A
:1043E0000E94EA070E940E1CC82F8DEA9CE00E94E2
:1043F000EA071F92CF9388EA9CE09F938F930E94D5
:10440000830886EA9CE00E94EA078CE99CE00E940F
:10441000EA078C2F81701F928F9389E99CE09F930C
:104420008F930E94830887E99CE00E94EA078DE849
:104430009CE00E94EA07C1FB882780F91F928F93B6
:104440008AE89CE09F938F930E94830888E89CE011
:104450000E94EA078CE79CE00E94EA07C2FB8827DB
:1044600080F91F928F9389E79CE09F938F930E941E
:10447000830887E79CE00E94EA078EE69CE00E94A2
:10448000EA07C3FBCC27C0F91F92CF938BE69CE0D1
:104490009F938F930E94830889E69CE00E94EA071D
:1044A0000E94161CC82F85E59CE00E94EA071F9217
:1044B000CF9380E59CE09F938F930E9483088EE4C6
:1044C0009CE00E94EA0785E39CE00E94EA078C2FAB
:1044D00081701F928F9382E39CE09F938F930E9441
:1044E00083088DB79EB780960FB6F8949EBF0FBE17
:1044F0008DBF80E39CE00E94EA0789E19CE00E9476
:10450000EA07C1FB882780F91F928F9386E19CE020
:104510009F938F930E94830884E19CE00E94EA07A6
:1045200082E09CE00E94EA07C2FB882780F91F9284
:104530008F938FEF9BE09F938F930E9483088DEF63
:104540009BE00E94EA078BEE9BE00E94EA07C3FB18
:10455000882780F91F928F9388EE9BE09F938F931B
:104560000E94830886EE9BE00E94EA078CED9BE0A8
:104570000E94EA07C4FB882780F91F928F9389ED78
:104580009BE09F938F930E94830887ED9BE00E949E
:10459000EA0785EC9BE00E94EA07C5FB882780F9C3
:1045A0001F928F9382EC9BE09F938F930E948308CE
:1045B00080EC9BE00E94EA0784EA9BE00E94EA0705
:1045C000C6FB882780F91F928F9381EA9BE09F9317
:1045D0008F930E9483088FE99BE00E94EA0787E996
:1045E0009BE00E94EA07C7FBCC27C0F91F92CF933C
:1045F00084E99BE09F938F930E94830882E99BE06C
:104600000E94EA078DB79EB74C960FB6F8949EBFEE
:104610000FBE8DBF49C0803109F4B4C020F48E3084
:1046200009F49AC007C1863109F4C7C0893109F07D
:1046300001C189EB99E00E94EA078CE899E00E94A9
:10464000EA0785E599E00E94EA0782E299E00E9484
:10465000EA078CEE98E00E94EA078EEB98E08FC0A4
:104660008A32E1F060F4873209F4E0C028F48E3138
:1046700008F4E0C08D51DBC0893269F1DBC08334BE
:1046800048F48A3308F0D0C0853309F4CFC08833AA
:1046900069F0D0C0833409F4C9C0CCC083E69DE082
:1046A0000E94EA070E947D1CC1E0C9C08FEE99E01C
:1046B00066C08091EB01817F8E7F8093EB0188EC57
:1046C00099E00E94EA078FE59DE00E94EA0781E0F9
:1046D0008093F801E9CF0E94661583E49DE00E9473
:1046E000EA079FEF23ED80E3915020408040E1F7FF
:1046F00000C000000E94AB1DD7CF8091EB01C82FF6
:10470000C095C170C0FB80F98093EB01CC2329F0E8
:1047100087E39DE00E94EA0792C08AE29DE00E9442
:10472000EA078091EB01897F877F8093EB01BCCF03
:104730009091EB0191FBCC27C0F981E0C827892F2C
:10474000C0FB81F98093EB01CC2319F08DE19DE052
:1047500029C08FE09DE013C09091EB0192FBCC2724
:10476000C0F981E0C827892FC0FB82F98093EB0153
:10477000CC2319F080E09DE015C080EF9CE00E9402
:10478000EA0792CF9091EB0193FBCC27C0F981E02F
:10479000C827892FC0FB83F98093EB01CC2351F00C
:1047A00084EE9CE00E94EA078091EB018160809397
:1047B000EB0145C087ED9CE0E2CF80EB98E00E94E2
:1047C000EA070E94330F1F928F9386E998E09F9328
:1047D0008F930E948308809112011F928F938FE71D
:1047E00098E09F938F930E948308809105021F9207
:1047F0008F938CE698E09F938F930E9483080E948A
:104800004F1D9F938F937F936F9385E598E09F93C0
:104810008F930E9483088DB79EB742960FB6F89487
:104820009EBF0FBE8DBF40CF895301C080E00E9464
:10483000A3213ACF85ED9CE00E94EA07C0E08C2FCF
:10484000CF91089580E0089580E008958E518A30D8
:1048500030F4E82FF0E0EB5DFE4F8081089580E0BA
:104860000895CF93C82F8091F801813059F020F03E
:10487000823009F445C039C10E941B1B823209F005
:1048800036C104C00E941B1B823261F48C2F0E942F
:104890002224811104C08C2F0E94C3212FC081E0EB
:1048A00090E02CC08C2F0E942424811126C0C4319A
:1048B000E1F070F4CB3081F0C031D1F40E946B2074
:1048C00088E498E00E94EA0782E08093F80115C02E
:1048D000C93259F0C83361F488EC99E00E94EA07C4
:1048E0008CE498E00E94EA0708C01092F80101C128
:1048F00086E498E00E94EA07FCC081E08170FBC07A
:10490000C43228F5CE3108F0C1C0CB30A1F1D0F4CB
:10491000C73009F0D0C08EE18093070182E3809315
:1049200006018AE08093050184E18093040188E018
:104930008093030188E2809302018CEE96E00E944E
:10494000EA07BCC0C33149F1C431C1F0B4C0CB34B3
:1049500009F4A6C028F4C93289F0C83361F0ABC0AD
:10496000C13509F49BC0C23509F496C0CE3409F0B4
:10497000A2C06AE09BC00E946B20A0C08091F7019A
:10498000882319F01092F70199C089EF96E00E94F0
:10499000EA0781E08093F801AEC083ED96E00E94C3
:1049A000EA0781EC96E00E94EA07809107011F92D6
:1049B0008F938EEB96E09F938F930E9483088CEBEE
:1049C00096E00E94EA078AEA96E00E94EA07809150
:1049D00006011F928F9387EA96E09F938F930E9420
:1049E000830885EA96E00E94EA0786E996E00E943D
:1049F000EA07809105011F928F9383E996E09F93C8
:104A00008F930E94830881E996E00E94EA0780E87C
:104A100096E00E94EA07809104011F928F938DE730
:104A200096E09F938F930E9483088BE796E00E9405
:104A3000EA0786E696E00E94EA07809103011F924A
:104A40008F9383E696E09F938F930E94830881E67D
:104A500096E00E94EA078AE496E00E94EA078091C5
:104A600002011F928F9387E496E09F938F930E9499
:104A7000830885E496E00E94EA078DB79EB74896C2
:104A80000FB6F8949EBF0FBE8DBF18C08C2F0E942A
:104A900026248093F70112C061E003C061E006C0E4
:104AA0006AE08091F7010E94822008C08091F7019E
:104AB0000E94252103C08AEE96E013C08091F70181
:104AC000882369F01F928F9384EE96E09F938F93D3
:104AD0000E9483080F900F900F900F9004C081EEFA
:104AE00096E00E94EA0781E006C01092F80180E09B
:104AF00002C080E003CFCF91089580910402089511
:104B00009FB7F8941092FB019FBF909117029430C9
:104B100009F057C09091E9009F703091EC00232F6D
:104B2000217030FD20E8922B23E02093E9002091B2
:104B3000EB0020FF43C02091EE0027FF3FC02091F3
:104B4000F901222321F02091E80025FF37C01092BF
:104B5000F90126E03091E80035FD15C030911702CB
:104B6000343061F53091EB0035FD28C0215021F43F
:104B700081E08093F90122C0EFE9FFE03197F1F77E
:104B800000C00000E7CF8093F1008091E80085FD30
:104B90000AC08091E80080FFFCCF8091E8008E770A
:104BA0008093E80006C08FB7F89421E02093FB01C2
:104BB0008FBF9F709093E90080E008959F7090935D
:104BC000E9008FEF08950F931F93CF93DF9300D0E9
:104BD0001F92CDB7DEB78C010E949E28823011F063
:104BE000843021F584E089831B830A8382E08093EB
:104BF000E9008FEF9091E800815095FD06C095ED9A
:104C00009A95F1F700008111F5CF8091E80085FFBA
:104C10000DC040E050E063E070E0CE0101960E94DC
:104C2000BB288091E8008E778093E8000F900F906A
:104C30000F90DF91CF911F910F910895CF93DF9344
:104C400000D01F92CDB7DEB720911702243031F586
:104C500023E02983805891099B838A8382E0809393
:104C6000E9008FEF9091E800815095FD06C095ED29
:104C70009A95F1F700008111F5CF8091E80085FF4A
:104C80000DC040E050E063E070E0CE0101960E946C
:104C9000BB288091E8008E778093E8000F900F90FA
:104CA0000F90DF91CF910895CF93DF93EC010E9495
:104CB0009E28823011F08430F9F482E08093E9007C
:104CC0009FEF8091E800915085FD06C085ED8A95A3
:104CD000F1F700009111F5CF8091E80085FF0CC03D
:104CE00040E050E066E070E0CE010E94BB28809179
:104CF000E8008E778093E800DF91CF910895CF93FD
:104D0000DF93EC010E949E28823011F0843039F547
:104D100081E08093E9008FEF9091E800815095FD4C
:104D200006C095ED9A95F1F700008111F5CF8091BD
:104D3000E80085FF14C040E050E068E070E0CE017C
:104D40000E94BB288091E8008E778093E80088E07D
:104D5000FE01ACEFB1E001900D928A95E1F7DF9191
:104D6000CF91089584EA9DE00E94EA07809116029F
:104D7000811109C00E94502A0E94AD2A8091E20050
:104D800084608093E200089580EA9DE00E94EA0733
:104D90001092160208958CE99DE00C94EA0788E9C8
:104DA0009DE00C94EA0784E99DE00E94EA070C94D8
:104DB000091D2091FA012F5F822F62E30E94562D78
:104DC000992319F02093FA0108951092FA01809125
:104DD000FB01882371F180911702843041F58091A5
:104DE000E9008F702091EC00922F917020FD90E8E7
:104DF000892B93E09093E9009091EB0090FF14C011
:104E00009091EE0097FF10C09091E80095FF03C0CD
:104E10001092F100F9CF9091E80090FF05C09091B9
:104E2000E8009E779093E8008F708093E9001092DD
:104E3000FB01089542E061EC81E00E94CA2942E250
:104E400061EC82E00E94CA2942E261EC83E00C94AA
:104E5000CA2980911902833009F460C030F481308E
:104E600071F0823009F499C008958A3009F485C040
:104E70008B3009F46BC0893009F0A7C020C0809145
:104E80001802813A09F0A1C08091E800877F8093E1
:104E9000E80080911C0290911D02892B21F468E0AA
:104EA0008CEF91E003C060E080E090E070E00E9451
:104EB00006298091E8008B778093E800089580911F
:104EC0001802813209F081C080911C0290911D026C
:104ED000029708F07AC08091E800877F8093E8000D
:104EE0008091E80082FD05C0809117028111F8CF02
:104EF0006CC02091F3008091F20090E0922B029719
:104F000029F48091F1008B7F813021F48091F100B0
:104F1000809304028091E8008B7753C0809118023F
:104F2000813A09F052C080911C0290911D02892B98
:104F300009F04BC08091E800877F8093E800809162
:104F4000E80080FFFCCF8091120136C080911802EA
:104F50008132D9F580911C0290911D02892BA9F50F
:104F60008091E800877F8093E8000E94FF2980916C
:104F70001A02809312010C946615809118028132F6
:104F800021F58091E800877F8093E8000E94FF2947
:104F900080911B0280930502089580911802813A46
:104FA000A1F48091E800877F8093E8008091E80079
:104FB00080FFFCCF809105028093F1008091E80092
:104FC0008E778093E8000C94FF29089584B7877F3B
:104FD00084BF0FB6F894A895809160008861809393
:104FE0006000109260000FBE80E880936100109214
:104FF00061000E94D00F0E94502A0E94AD2A809129
:10500000E20084608093E20080E895E20E94CE1B7B
:1050100078940E943B2D0E94D80F88E091E00E9476
:105020002E0F83E89DE00E94EA07809117028530E9
:1050300089F48FE79DE00E94EA070E94BF1C8091DF
:105040001502882391F30E94F11C882371F30E94BA
:10505000A528EBCF0E940810E8CF0C942F28292F09
:10506000332723303105C9F064F42130310581F054
:105070002230310509F049C08BE590E026ED3DE096
:1050800048C02132310521F12232310571F13DC094
:1050900082E190E021E33EE03CC099278130910518
:1050A00071F02CF4892B89F5E2EDFDE00DC0823022
:1050B000910541F0039749F5E8EAFDE005C0E2EC0F
:1050C000FDE002C0EEEAFDE0849190E09F0121C086
:1050D00063307105D0F4660F771FFB01E85CFE4F6B
:1050E0002081318189E090E014C06330710568F45B
:1050F000FB01EE0FFF1FEE5CFE4F20813181FB01B3
:10510000E15DFE4F808190E004C080E090E020E00F
:1051100030E0FA013183208308950895CF93C82F9A
:105120000E948D28C0930602CF91089580911702A6
:10513000843011F081E0089582E0089580910602A4
:10514000811102C00C949628089580E189BD82E106
:1051500089BD09B400FEFDCF8091D8008F7D80937A
:10516000D8008091E00082608093E0008091E000B0
:1051700081FDFCCF0895CF92DF92EF92FF920F93C3
:105180001F93CF93DF93EC018B016A010E941E2ACB
:10519000811133C0C114D10439F0F60180819181AD
:1051A000081B190BC80FD91FE12CF12C0115110593
:1051B00019F18091E80085FD16C08091E8008E7796
:1051C0008093E800C114D10449F0F60180819181F7
:1051D000E80EF91EF182E08285E00FC00E941E2ACF
:1051E000882321F30AC089918093F10001501109AD
:1051F000FFEFEF1AFF0ADACF80E0DF91CF911F9126
:105200000F91FF90EF90DF90CF90089520911E02B4
:1052100030911F022617370748F06115710539F4E0
:105220002091E8002E772093E80001C0B90140E00A
:1052300061157105A9F120911702222309F443C0D9
:10524000253009F442C02091E80023FD40C02091A0
:10525000E80022FD32C02091E80020FFE9CF409114
:10526000F3002091F20030E0342BFC01CF016115F6
:10527000710559F02830310540F481918093F10097
:10528000615071092F5F3F4FF1CF41E02830310568
:1052900009F040E02091E8002E772093E800C8CF85
:1052A0004111C9CF0AC080911702882361F085306F
:1052B00061F08091E80083FD0AC08091E80082FFE0
:1052C000F2CF80E0089582E0089583E0089581E0C0
:1052D000089520911E0230911F022617370748F0CB
:1052E0006115710539F42091E8002E772093E800CC
:1052F00001C0B901FC0120E06115710591F18091B7
:105300001702882309F440C0853009F43FC080911A
:10531000E80083FD3DC08091E80082FD2FC08091B0
:10532000E80080FFE9CF2091F3008091F20090E047
:10533000922B6115710559F08830910540F4249144
:105340002093F1003196615071090196F2CF21E06E
:10535000089709F020E08091E8008E778093E800BC
:10536000CBCF2111CCCF0AC080911702882361F0E6
:10537000853061F08091E80083FD0AC08091E800EB
:1053800082FFF2CF80E0089582E0089583E00895DF
:1053900081E00895982F973058F59093E900981779
:1053A00039F07091EC002091ED005091F00003C0B5
:1053B000242F762F50E021FF19C03091EB003E7F63
:1053C0003093EB003091ED003D7F3093ED00309154
:1053D000EB0031603093EB007093EC002093ED0014
:1053E0005093F0002091EE0027FF07C09F5FD3CFBE
:1053F0008F708093E90081E0089580E008958091A6
:10540000180287FF11C08091E80082FD05C08091DD
:1054100017028111F8CF11C08091E8008B770BC083
:1054200080911702882349F08091E80080FFF8CF2F
:105430008091E8008E778093E80008952091E40041
:105440003091E50095E64091EC00842F817040FF9B
:1054500022C08091E80080FD1CC080911702882343
:1054600091F0853091F08091EB0085FD10C0409166
:10547000E4005091E5004217530729F39A01915037
:1054800011F784E0089582E0089583E0089581E0B3
:10549000089580E008954091E80042FFDECF08952E
:1054A0000E94BE2A0E94C62AE0EEF0E08081816060
:1054B0008083E8EDF0E080818F77808319BCA7EDD1
:1054C000B0E08C918E7F8C9380818F7E8083109250
:1054D000160208950F931F93CF93DF930E94BE2A65
:1054E0000E94C62AC8EDD0E088818F7788838881A2
:1054F0008068888388818F7D888319BC1092170209
:1055000010921302109215021092140200EE10E095
:10551000F80180818B7F808388818160888342E06D
:1055200060E080E00E94CA29E1EEF0E080818E7F99
:105530008083E2EEF0E080818160808380818860FA
:105540008083F80180818E7F808388818061888359
:10555000DF91CF911F910F910895E8EDF0E08081E8
:105560008F7E8083E7EDF0E080818160808384E03E
:1055700082BF81E0809316020C946A2AE8EDF0E085
:1055800080818E7F80831092E20008951092DA006D
:105590001092E10008951F920F920FB60F921124FE
:1055A0002F933F934F935F936F937F938F939F932B
:1055B000AF93BF93EF93FF938091E10082FF0BC005
:1055C0008091E20082FF07C08091E1008B7F809391
:1055D000E1000E94D9268091DA0080FF1FC08091EF
:1055E000D80080FF1BC08091DA008E7F8093DA00A4
:1055F0008091D90080FF0DC080E189BD82E189BD25
:1056000009B400FEFDCF81E0809317020E94B2260C
:1056100005C019BC109217020E94C4268091E100B7
:1056200080FF19C08091E20080FF15C08091E200E8
:105630008E7F8093E2008091E20080618093E2009F
:105640008091D80080628093D80019BC85E0809357
:1056500017020E94CF268091E10084FF30C0809124
:10566000E20084FF2CC080E189BD82E189BD09B4DC
:1056700000FEFDCF8091D8008F7D8093D80080916F
:10568000E1008F7E8093E1008091E2008F7E809325
:10569000E2008091E20081608093E2008091130239
:1056A000882311F084E007C08091E30087FD02C0E9
:1056B00081E001C083E0809317020E94D32680918D
:1056C000E10083FF29C08091E20083FF25C0809123
:1056D000E100877F8093E10082E0809317021092BF
:1056E00013028091E1008E7F8093E1008091E200BF
:1056F0008E7F8093E2008091E20080618093E200DF
:1057000042E060E080E00E94CA298091F000886059
:105710008093F0000E94CB26FF91EF91BF91AF9153
:105720009F918F917F916F915F914F913F912F91B9
:105730000F900FBE0F901F9018951F920F920FB6EB
:105740000F9211242F933F934F935F936F937F9307
:105750008F939F93AF93BF93CF93DF93EF93FF9379
:10576000C091E900CF708091EC00D82FD17080FDFE
:10577000D0E81092E9008091F000877F8093F000DC
:1057800078940E94E12B1092E9008091F0008860EB
:105790008093F000CD2BCF70C093E900FF91EF9183
:1057A000DF91CF91BF91AF919F918F917F916F9139
:1057B0005F914F913F912F910F900FBE0F901F90CF
:1057C00018951F93CF93DF93CDB7DEB7AA970FB687
:1057D000F894DEBF0FBECDBFE8E1F2E088E08E0FA7
:1057E0009091F10091938E13FBCF0E942927809115
:1057F000E80083FF28C18091180290911902492F77
:1058000050E04A30510508F01EC1FA01E556FF4F3D
:105810000C94762D803821F0823809F014C108C02C
:105820008091140290911502992389F082600FC033
:1058300080911C028F70873008F005C18093E900C9
:105840008091EB0085FB882780F91092E900909108
:10585000E800977F9093E8008093F1001092F100A8
:10586000D0C0282F2D7F09F0EEC0882319F0823098
:1058700061F0E9C080911A02813009F0E4C09330F0
:1058800009F080E0809315022EC080911A028111E8
:105890002AC080911C028F702FEF280F263008F04D
:1058A000D2C08093E9002091EB0020FF1CC0933010
:1058B00021F48091EB00806214C09091EB00906124
:1058C0009093EB0021E030E0A90102C0440F551F86
:1058D0008A95E2F74093EA001092EA008091EB008B
:1058E00088608093EB001092E9008091E800877F48
:1058F0008093E8000E94FF29A6C08111A4C01091E6
:105900001A021F778091E3008078812B8093E30057
:105910008091E800877F8093E8000E94FF298091B2
:10592000E80080FFFCCF8091E30080688093E30073
:10593000111102C082E001C083E08093170283C08E
:105940008058823008F07FC080911A0290911B022B
:105950008C3D53E0950779F583E08A838AE2898359
:105960004FB7F894DE01139620E03EE051E2E32FBA
:10597000F0E050935700E49120FF03C0E295EF70F0
:105980003F5FEF708E2F90E0EA3010F0C79601C0B5
:10599000C0968D939D932F5F243149F74FBF80911F
:1059A000E800877F8093E8006AE270E0CE0101960C
:1059B0000E94062915C060911C0270911D02AE0163
:1059C0004F5F5F4F0E942D28BC01892BE1F1909120
:1059D000E800977F9093E80089819A810E94692965
:1059E0008091E8008B778093E8002DC0803859F5CE
:1059F0008091E800877F8093E80080911302809374
:105A0000F1008091E8008E7773CF81111CC09091D6
:105A10001A029230C0F48091E800877F8093E800FA
:105A2000909313020E94FF2980911302811106C0F6
:105A30008091E30087FD02C081E001C084E0809393
:105A400017020E941A278091E80083FF0AC0809104
:105A5000E800877F8093E8008091EB00806280936C
:105A6000EB00AA960FB6F894DEBF0FBECDBFDF9154
:105A7000CF911F910895CF93809117028823A1F0B1
:105A8000C091E900CF709091EC00892F817090FD5A
:105A900080E8C82B1092E9008091E80083FD0E9405
:105AA000E12BCF70C093E900CF910895991B79E065
:105AB00004C0991F961708F0961B881F7A95C9F79E
:105AC0008095089597FB072E16F4009407D077FD74
:105AD00009D00E947C2D07FC05D03EF4909581955D
